{
	"contracts/Counter.sol": {
		"Counter": {
			"abi": [
				{
					"inputs": [],
					"name": "count",
					"outputs": [
						{
							"internalType": "int256",
							"name": "",
							"type": "int256"
						}
					],
					"stateMutability": "view",
					"type": "function"
				},
				{
					"inputs": [],
					"name": "decrement",
					"outputs": [],
					"stateMutability": "nonpayable",
					"type": "function"
				},
				{
					"inputs": [],
					"name": "getCount",
					"outputs": [
						{
							"internalType": "int256",
							"name": "",
							"type": "int256"
						}
					],
					"stateMutability": "view",
					"type": "function"
				},
				{
					"inputs": [],
					"name": "increment",
					"outputs": [],
					"stateMutability": "nonpayable",
					"type": "function"
				}
			],
			"devdoc": {
				"kind": "dev",
				"methods": {},
				"version": 1
			},
			"evm": {
				"assembly": "    /* \"contracts/Counter.sol\":57:312  contract Counter {... */\n  mstore(0x40, 0x80)\n    /* \"contracts/Counter.sol\":102:103  0 */\n  0x00\n    /* \"contracts/Counter.sol\":80:103  int256 public count = 0 */\n  0x00\n  sstore\n    /* \"contracts/Counter.sol\":57:312  contract Counter {... */\n  callvalue\n  dup1\n  iszero\n  tag_1\n  jumpi\n  revert(0x00, 0x00)\ntag_1:\n  pop\n  dataSize(sub_0)\n  dup1\n  dataOffset(sub_0)\n  0x00\n  codecopy\n  0x00\n  return\nstop\n\nsub_0: assembly {\n        /* \"contracts/Counter.sol\":57:312  contract Counter {... */\n      mstore(0x40, 0x80)\n      callvalue\n      dup1\n      iszero\n      tag_1\n      jumpi\n      revert(0x00, 0x00)\n    tag_1:\n      pop\n      jumpi(tag_2, lt(calldatasize, 0x04))\n      shr(0xe0, calldataload(0x00))\n      dup1\n      0x06661abd\n      eq\n      tag_3\n      jumpi\n      dup1\n      0x2baeceb7\n      eq\n      tag_4\n      jumpi\n      dup1\n      0xa87d942c\n      eq\n      tag_5\n      jumpi\n      dup1\n      0xd09de08a\n      eq\n      tag_6\n      jumpi\n    tag_2:\n      revert(0x00, 0x00)\n        /* \"contracts/Counter.sol\":80:103  int256 public count = 0 */\n    tag_3:\n      tag_7\n      sload(0x00)\n      dup2\n      jump\n    tag_7:\n      mload(0x40)\n        /* \"#utility.yul\":158:183   */\n      swap1\n      dup2\n      mstore\n        /* \"#utility.yul\":146:148   */\n      0x20\n        /* \"#utility.yul\":131:149   */\n      add\n        /* \"contracts/Counter.sol\":80:103  int256 public count = 0 */\n      mload(0x40)\n      dup1\n      swap2\n      sub\n      swap1\n      return\n        /* \"contracts/Counter.sol\":171:226  function decrement() public {... */\n    tag_4:\n      tag_11\n      tag_12\n      jump\t// in\n    tag_11:\n      stop\n        /* \"contracts/Counter.sol\":232:310  function getCount() public view returns (int256) {... */\n    tag_5:\n        /* \"contracts/Counter.sol\":273:279  int256 */\n      0x00\n        /* \"contracts/Counter.sol\":298:303  count */\n      sload\n        /* \"contracts/Counter.sol\":232:310  function getCount() public view returns (int256) {... */\n      jump(tag_7)\n        /* \"contracts/Counter.sol\":110:165  function increment() public {... */\n    tag_6:\n      tag_11\n      tag_17\n      jump\t// in\n        /* \"contracts/Counter.sol\":171:226  function decrement() public {... */\n    tag_12:\n        /* \"contracts/Counter.sol\":218:219  1 */\n      0x01\n        /* \"contracts/Counter.sol\":209:214  count */\n      0x00\n      0x00\n        /* \"contracts/Counter.sol\":209:219  count -= 1 */\n      dup3\n      dup3\n      sload\n      tag_19\n      swap2\n      swap1\n      tag_20\n      jump\t// in\n    tag_19:\n      swap1\n      swap2\n      sstore\n      pop\n      pop\n        /* \"contracts/Counter.sol\":171:226  function decrement() public {... */\n      jump\t// out\n        /* \"contracts/Counter.sol\":110:165  function increment() public {... */\n    tag_17:\n        /* \"contracts/Counter.sol\":157:158  1 */\n      0x01\n        /* \"contracts/Counter.sol\":148:153  count */\n      0x00\n      0x00\n        /* \"contracts/Counter.sol\":148:158  count += 1 */\n      dup3\n      dup3\n      sload\n      tag_19\n      swap2\n      swap1\n      tag_24\n      jump\t// in\n        /* \"#utility.yul\":194:321   */\n    tag_25:\n        /* \"#utility.yul\":255:265   */\n      0x4e487b71\n        /* \"#utility.yul\":250:253   */\n      0xe0\n        /* \"#utility.yul\":246:266   */\n      shl\n        /* \"#utility.yul\":243:244   */\n      0x00\n        /* \"#utility.yul\":236:267   */\n      mstore\n        /* \"#utility.yul\":286:290   */\n      0x11\n        /* \"#utility.yul\":283:284   */\n      0x04\n        /* \"#utility.yul\":276:291   */\n      mstore\n        /* \"#utility.yul\":310:314   */\n      0x24\n        /* \"#utility.yul\":307:308   */\n      0x00\n        /* \"#utility.yul\":300:315   */\n      revert\n        /* \"#utility.yul\":326:526   */\n    tag_20:\n        /* \"#utility.yul\":392:401   */\n      dup2\n      dup2\n      sub\n        /* \"#utility.yul\":365:369   */\n      0x00\n        /* \"#utility.yul\":420:429   */\n      dup4\n      slt\n        /* \"#utility.yul\":448:458   */\n      dup1\n      iszero\n        /* \"#utility.yul\":460:472   */\n      dup4\n      dup4\n      sgt\n        /* \"#utility.yul\":444:473   */\n      and\n        /* \"#utility.yul\":483:495   */\n      dup4\n      dup4\n      slt\n        /* \"#utility.yul\":475:496   */\n      dup3\n      and\n        /* \"#utility.yul\":441:497   */\n      or\n        /* \"#utility.yul\":438:520   */\n      iszero\n      tag_31\n      jumpi\n        /* \"#utility.yul\":500:518   */\n      tag_31\n      tag_25\n      jump\t// in\n    tag_31:\n        /* \"#utility.yul\":438:520   */\n      pop\n        /* \"#utility.yul\":326:526   */\n      swap3\n      swap2\n      pop\n      pop\n      jump\t// out\n        /* \"#utility.yul\":531:747   */\n    tag_24:\n        /* \"#utility.yul\":595:604   */\n      dup1\n      dup3\n      add\n        /* \"#utility.yul\":623:634   */\n      dup3\n      dup2\n      slt\n        /* \"#utility.yul\":570:573   */\n      0x00\n        /* \"#utility.yul\":653:662   */\n      dup4\n      slt\n        /* \"#utility.yul\":681:691   */\n      dup1\n      iszero\n        /* \"#utility.yul\":677:696   */\n      dup3\n      and\n        /* \"#utility.yul\":706:716   */\n      dup3\n      iszero\n        /* \"#utility.yul\":698:717   */\n      dup3\n      and\n        /* \"#utility.yul\":674:718   */\n      or\n        /* \"#utility.yul\":671:741   */\n      iszero\n      tag_34\n      jumpi\n        /* \"#utility.yul\":721:739   */\n      tag_34\n      tag_25\n      jump\t// in\n    tag_34:\n        /* \"#utility.yul\":671:741   */\n      pop\n      pop\n        /* \"#utility.yul\":531:747   */\n      swap3\n      swap2\n      pop\n      pop\n      jump\t// out\n\n    auxdata: 0xa26469706673582212204cca8902b200cccddd5f61d4d83e96c4b26b0396de96f68d55a074f6288dd73f64736f6c634300081f0033\n}\n",
				"bytecode": {
					"linkReferences": {},
					"object": "60806040525f5f553480156011575f5ffd5b5061012b8061001f5f395ff3fe6080604052348015600e575f5ffd5b50600436106044575f3560e01c806306661abd1460485780632baeceb7146061578063a87d942c146069578063d09de08a14606f575b5f5ffd5b604f5f5481565b60405190815260200160405180910390f35b60676075565b005b5f54604f565b6067608b565b60015f5f8282546084919060ae565b9091555050565b60015f5f8282546084919060d1565b634e487b7160e01b5f52601160045260245ffd5b8181035f83128015838313168383128216171560ca5760ca609a565b5092915050565b8082018281125f83128015821682158216171560ed5760ed609a565b50509291505056fea26469706673582212204cca8902b200cccddd5f61d4d83e96c4b26b0396de96f68d55a074f6288dd73f64736f6c634300081f0033",
					"opcodes": "PUSH1 0x80 PUSH1 0x40 MSTORE PUSH0 PUSH0 SSTORE CALLVALUE DUP1 ISZERO PUSH1 0x11 JUMPI PUSH0 PUSH0 REVERT JUMPDEST POP PUSH2 0x12B DUP1 PUSH2 0x1F PUSH0 CODECOPY PUSH0 RETURN INVALID PUSH1 0x80 PUSH1 0x40 MSTORE CALLVALUE DUP1 ISZERO PUSH1 0xE JUMPI PUSH0 PUSH0 REVERT JUMPDEST POP PUSH1 0x4 CALLDATASIZE LT PUSH1 0x44 JUMPI PUSH0 CALLDATALOAD PUSH1 0xE0 SHR DUP1 PUSH4 0x6661ABD EQ PUSH1 0x48 JUMPI DUP1 PUSH4 0x2BAECEB7 EQ PUSH1 0x61 JUMPI DUP1 PUSH4 0xA87D942C EQ PUSH1 0x69 JUMPI DUP1 PUSH4 0xD09DE08A EQ PUSH1 0x6F JUMPI JUMPDEST PUSH0 PUSH0 REVERT JUMPDEST PUSH1 0x4F PUSH0 SLOAD DUP2 JUMP JUMPDEST PUSH1 0x40 MLOAD SWAP1 DUP2 MSTORE PUSH1 0x20 ADD PUSH1 0x40 MLOAD DUP1 SWAP2 SUB SWAP1 RETURN JUMPDEST PUSH1 0x67 PUSH1 0x75 JUMP JUMPDEST STOP JUMPDEST PUSH0 SLOAD PUSH1 0x4F JUMP JUMPDEST PUSH1 0x67 PUSH1 0x8B JUMP JUMPDEST PUSH1 0x1 PUSH0 PUSH0 DUP3 DUP3 SLOAD PUSH1 0x84 SWAP2 SWAP1 PUSH1 0xAE JUMP JUMPDEST SWAP1 SWAP2 SSTORE POP POP JUMP JUMPDEST PUSH1 0x1 PUSH0 PUSH0 DUP3 DUP3 SLOAD PUSH1 0x84 SWAP2 SWAP1 PUSH1 0xD1 JUMP JUMPDEST PUSH4 0x4E487B71 PUSH1 0xE0 SHL PUSH0 MSTORE PUSH1 0x11 PUSH1 0x4 MSTORE PUSH1 0x24 PUSH0 REVERT JUMPDEST DUP2 DUP2 SUB PUSH0 DUP4 SLT DUP1 ISZERO DUP4 DUP4 SGT AND DUP4 DUP4 SLT DUP3 AND OR ISZERO PUSH1 0xCA JUMPI PUSH1 0xCA PUSH1 0x9A JUMP JUMPDEST POP SWAP3 SWAP2 POP POP JUMP JUMPDEST DUP1 DUP3 ADD DUP3 DUP2 SLT PUSH0 DUP4 SLT DUP1 ISZERO DUP3 AND DUP3 ISZERO DUP3 AND OR ISZERO PUSH1 0xED JUMPI PUSH1 0xED PUSH1 0x9A JUMP JUMPDEST POP POP SWAP3 SWAP2 POP POP JUMP INVALID LOG2 PUSH5 0x6970667358 0x22 SLT KECCAK256 0x4C 0xCA DUP10 MUL 0xB2 STOP 0xCC 0xCD 0xDD PUSH0 PUSH2 0xD4D8 RETURNDATACOPY SWAP7 0xC4 0xB2 PUSH12 0x396DE96F68D55A074F6288D 0xD7 EXTCODEHASH PUSH5 0x736F6C6343 STOP ADDMOD 0x1F STOP CALLER "
				},
				"gasEstimates": {
					"creation": {
						"codeDepositCost": "59800",
						"executionCost": "5113",
						"totalCost": "64913"
					},
					"external": {
						"count()": "2259",
						"decrement()": "24478",
						"getCount()": "2300",
						"increment()": "24524"
					}
				},
				"methodIdentifiers": {
					"count()": "06661abd",
					"decrement()": "2baeceb7",
					"getCount()": "a87d942c",
					"increment()": "d09de08a"
				}
			},
			"storageLayout": {
				"storage": [
					{
						"astId": 4,
						"contract": "contracts/Counter.sol:Counter",
						"label": "count",
						"offset": 0,
						"slot": "0",
						"type": "t_int256"
					}
				],
				"types": {
					"t_int256": {
						"encoding": "inplace",
						"label": "int256",
						"numberOfBytes": "32"
					}
				}
			},
			"userdoc": {
				"kind": "user",
				"methods": {},
				"version": 1
			}
		}
	}
}