{
	"contracts/Simple Voting.sol": {
		"SimpleVoting": {
			"abi": [
				{
					"inputs": [],
					"name": "getResults",
					"outputs": [
						{
							"internalType": "uint256",
							"name": "",
							"type": "uint256"
						},
						{
							"internalType": "uint256",
							"name": "",
							"type": "uint256"
						}
					],
					"stateMutability": "view",
					"type": "function"
				},
				{
					"inputs": [
						{
							"internalType": "address",
							"name": "",
							"type": "address"
						}
					],
					"name": "hasVoted",
					"outputs": [
						{
							"internalType": "bool",
							"name": "",
							"type": "bool"
						}
					],
					"stateMutability": "view",
					"type": "function"
				},
				{
					"inputs": [],
					"name": "noVotes",
					"outputs": [
						{
							"internalType": "uint256",
							"name": "",
							"type": "uint256"
						}
					],
					"stateMutability": "view",
					"type": "function"
				},
				{
					"inputs": [],
					"name": "proposal",
					"outputs": [
						{
							"internalType": "string",
							"name": "",
							"type": "string"
						}
					],
					"stateMutability": "view",
					"type": "function"
				},
				{
					"inputs": [],
					"name": "voteNo",
					"outputs": [],
					"stateMutability": "nonpayable",
					"type": "function"
				},
				{
					"inputs": [],
					"name": "voteYes",
					"outputs": [],
					"stateMutability": "nonpayable",
					"type": "function"
				},
				{
					"inputs": [],
					"name": "yesVotes",
					"outputs": [
						{
							"internalType": "uint256",
							"name": "",
							"type": "uint256"
						}
					],
					"stateMutability": "view",
					"type": "function"
				}
			],
			"devdoc": {
				"kind": "dev",
				"methods": {},
				"version": 1
			},
			"evm": {
				"assembly": "    /* \"contracts/Simple Voting.sol\":85:130  string public proposal = \"Should we proceed?\" */\n  0xc0\n    /* \"contracts/Simple Voting.sol\":57:664  contract SimpleVoting {... */\n  0x40\n    /* \"contracts/Simple Voting.sol\":85:130  string public proposal = \"Should we proceed?\" */\n  mstore\n  0x12\n    /* \"contracts/Simple Voting.sol\":57:664  contract SimpleVoting {... */\n  0x80\n    /* \"contracts/Simple Voting.sol\":85:130  string public proposal = \"Should we proceed?\" */\n  swap1\n  dup2\n  mstore\n  mstore(0xa0, shl(0x70, 0x53686f756c642077652070726f636565643f))\n  0x00\n  swap1\n  tag_1\n  swap1\n  dup3\n  tag_2\n  jump\t// in\ntag_1:\n  pop\n    /* \"contracts/Simple Voting.sol\":162:163  0 */\n  0x00\n    /* \"contracts/Simple Voting.sol\":136:163  uint256 public yesVotes = 0 */\n  0x01\n  sstore\n    /* \"contracts/Simple Voting.sol\":194:195  0 */\n  0x00\n    /* \"contracts/Simple Voting.sol\":169:195  uint256 public noVotes = 0 */\n  0x02\n  sstore\n    /* \"contracts/Simple Voting.sol\":57:664  contract SimpleVoting {... */\n  callvalue\n  dup1\n  iszero\n  tag_3\n  jumpi\n  revert(0x00, 0x00)\ntag_3:\n  pop\n  jump(tag_10)\n    /* \"#utility.yul\":14:141   */\ntag_5:\n    /* \"#utility.yul\":75:85   */\n  0x4e487b71\n    /* \"#utility.yul\":70:73   */\n  0xe0\n    /* \"#utility.yul\":66:86   */\n  shl\n    /* \"#utility.yul\":63:64   */\n  0x00\n    /* \"#utility.yul\":56:87   */\n  mstore\n    /* \"#utility.yul\":106:110   */\n  0x41\n    /* \"#utility.yul\":103:104   */\n  0x04\n    /* \"#utility.yul\":96:111   */\n  mstore\n    /* \"#utility.yul\":130:134   */\n  0x24\n    /* \"#utility.yul\":127:128   */\n  0x00\n    /* \"#utility.yul\":120:135   */\n  revert\n    /* \"#utility.yul\":146:526   */\ntag_6:\n    /* \"#utility.yul\":225:226   */\n  0x01\n    /* \"#utility.yul\":221:233   */\n  dup2\n  dup2\n  shr\n  swap1\n    /* \"#utility.yul\":268:280   */\n  dup3\n  and\n  dup1\n    /* \"#utility.yul\":289:350   */\n  tag_13\n  jumpi\n    /* \"#utility.yul\":343:347   */\n  0x7f\n    /* \"#utility.yul\":335:341   */\n  dup3\n    /* \"#utility.yul\":331:348   */\n  and\n    /* \"#utility.yul\":321:348   */\n  swap2\n  pop\n    /* \"#utility.yul\":289:350   */\ntag_13:\n    /* \"#utility.yul\":396:398   */\n  0x20\n    /* \"#utility.yul\":388:394   */\n  dup3\n    /* \"#utility.yul\":385:399   */\n  lt\n    /* \"#utility.yul\":365:383   */\n  dup2\n    /* \"#utility.yul\":362:400   */\n  sub\n    /* \"#utility.yul\":359:520   */\n  tag_14\n  jumpi\n    /* \"#utility.yul\":442:452   */\n  0x4e487b71\n    /* \"#utility.yul\":437:440   */\n  0xe0\n    /* \"#utility.yul\":433:453   */\n  shl\n    /* \"#utility.yul\":430:431   */\n  0x00\n    /* \"#utility.yul\":423:454   */\n  mstore\n    /* \"#utility.yul\":477:481   */\n  0x22\n    /* \"#utility.yul\":474:475   */\n  0x04\n    /* \"#utility.yul\":467:482   */\n  mstore\n    /* \"#utility.yul\":505:509   */\n  0x24\n    /* \"#utility.yul\":502:503   */\n  0x00\n    /* \"#utility.yul\":495:510   */\n  revert\n    /* \"#utility.yul\":359:520   */\ntag_14:\n  pop\n    /* \"#utility.yul\":146:526   */\n  swap2\n  swap1\n  pop\n  jump\t// out\n    /* \"#utility.yul\":657:1175   */\ntag_8:\n    /* \"#utility.yul\":759:761   */\n  0x1f\n    /* \"#utility.yul\":754:757   */\n  dup3\n    /* \"#utility.yul\":751:762   */\n  gt\n    /* \"#utility.yul\":748:1169   */\n  iszero\n  tag_17\n  jumpi\n    /* \"#utility.yul\":795:800   */\n  dup1\n    /* \"#utility.yul\":792:793   */\n  0x00\n    /* \"#utility.yul\":785:801   */\n  mstore\n    /* \"#utility.yul\":839:843   */\n  0x20\n    /* \"#utility.yul\":836:837   */\n  0x00\n    /* \"#utility.yul\":826:844   */\n  keccak256\n    /* \"#utility.yul\":909:911   */\n  0x1f\n    /* \"#utility.yul\":897:907   */\n  dup5\n    /* \"#utility.yul\":893:912   */\n  add\n    /* \"#utility.yul\":890:891   */\n  0x05\n    /* \"#utility.yul\":886:913   */\n  shr\n    /* \"#utility.yul\":880:884   */\n  dup2\n    /* \"#utility.yul\":876:914   */\n  add\n    /* \"#utility.yul\":945:949   */\n  0x20\n    /* \"#utility.yul\":933:943   */\n  dup6\n    /* \"#utility.yul\":930:950   */\n  lt\n    /* \"#utility.yul\":927:974   */\n  iszero\n  tag_18\n  jumpi\n  pop\n    /* \"#utility.yul\":968:972   */\n  dup1\n    /* \"#utility.yul\":927:974   */\ntag_18:\n    /* \"#utility.yul\":1023:1025   */\n  0x1f\n    /* \"#utility.yul\":1018:1021   */\n  dup5\n    /* \"#utility.yul\":1014:1026   */\n  add\n    /* \"#utility.yul\":1011:1012   */\n  0x05\n    /* \"#utility.yul\":1007:1027   */\n  shr\n    /* \"#utility.yul\":1001:1005   */\n  dup3\n    /* \"#utility.yul\":997:1028   */\n  add\n    /* \"#utility.yul\":987:1028   */\n  swap2\n  pop\n    /* \"#utility.yul\":1078:1159   */\ntag_19:\n    /* \"#utility.yul\":1096:1098   */\n  dup2\n    /* \"#utility.yul\":1089:1094   */\n  dup2\n    /* \"#utility.yul\":1086:1099   */\n  lt\n    /* \"#utility.yul\":1078:1159   */\n  iszero\n  tag_21\n  jumpi\n    /* \"#utility.yul\":1155:1156   */\n  0x00\n    /* \"#utility.yul\":1141:1157   */\n  dup2\n  sstore\n    /* \"#utility.yul\":1122:1123   */\n  0x01\n    /* \"#utility.yul\":1111:1124   */\n  add\n    /* \"#utility.yul\":1078:1159   */\n  jump(tag_19)\ntag_21:\n    /* \"#utility.yul\":1082:1085   */\n  pop\n  pop\n    /* \"#utility.yul\":748:1169   */\ntag_17:\n    /* \"#utility.yul\":657:1175   */\n  pop\n  pop\n  pop\n  jump\t// out\n    /* \"#utility.yul\":1351:2650   */\ntag_2:\n    /* \"#utility.yul\":1471:1481   */\n  dup2\n  mload\n  sub(shl(0x40, 0x01), 0x01)\n    /* \"#utility.yul\":1493:1523   */\n  dup2\n  gt\n    /* \"#utility.yul\":1490:1546   */\n  iszero\n  tag_25\n  jumpi\n    /* \"#utility.yul\":1526:1544   */\n  tag_25\n  tag_5\n  jump\t// in\ntag_25:\n    /* \"#utility.yul\":1555:1652   */\n  tag_26\n    /* \"#utility.yul\":1645:1651   */\n  dup2\n    /* \"#utility.yul\":1605:1643   */\n  tag_27\n    /* \"#utility.yul\":1637:1641   */\n  dup5\n    /* \"#utility.yul\":1631:1642   */\n  sload\n    /* \"#utility.yul\":1605:1643   */\n  tag_6\n  jump\t// in\ntag_27:\n    /* \"#utility.yul\":1599:1603   */\n  dup5\n    /* \"#utility.yul\":1555:1652   */\n  tag_8\n  jump\t// in\ntag_26:\n    /* \"#utility.yul\":1701:1705   */\n  0x20\n    /* \"#utility.yul\":1732:1734   */\n  0x1f\n    /* \"#utility.yul\":1721:1735   */\n  dup3\n  gt\n    /* \"#utility.yul\":1749:1750   */\n  0x01\n    /* \"#utility.yul\":1744:2393   */\n  dup2\n  eq\n  tag_29\n  jumpi\n    /* \"#utility.yul\":2437:2438   */\n  0x00\n    /* \"#utility.yul\":2454:2460   */\n  dup4\n    /* \"#utility.yul\":2451:2540   */\n  iszero\n  tag_30\n  jumpi\n  pop\n    /* \"#utility.yul\":2506:2525   */\n  dup5\n  dup3\n  add\n    /* \"#utility.yul\":2500:2526   */\n  mload\n    /* \"#utility.yul\":2451:2540   */\ntag_30:\n  not(0x00)\n    /* \"#utility.yul\":1308:1309   */\n  0x03\n    /* \"#utility.yul\":1304:1315   */\n  dup6\n  swap1\n  shl\n    /* \"#utility.yul\":1300:1324   */\n  shr\n    /* \"#utility.yul\":1296:1325   */\n  not\n    /* \"#utility.yul\":1286:1326   */\n  and\n    /* \"#utility.yul\":1332:1333   */\n  0x01\n    /* \"#utility.yul\":1328:1339   */\n  dup5\n  swap1\n  shl\n    /* \"#utility.yul\":1283:1340   */\n  or\n    /* \"#utility.yul\":2553:2634   */\n  dup5\n  sstore\n    /* \"#utility.yul\":1714:2644   */\n  jump(tag_21)\n    /* \"#utility.yul\":1744:2393   */\ntag_29:\n    /* \"#utility.yul\":604:605   */\n  0x00\n    /* \"#utility.yul\":597:611   */\n  dup5\n  dup2\n  mstore\n    /* \"#utility.yul\":641:645   */\n  0x20\n    /* \"#utility.yul\":628:646   */\n  dup2\n  keccak256\n  not(0x1f)\n    /* \"#utility.yul\":1780:1800   */\n  dup6\n  and\n  swap2\n    /* \"#utility.yul\":1898:2120   */\ntag_33:\n    /* \"#utility.yul\":1912:1919   */\n  dup3\n    /* \"#utility.yul\":1909:1910   */\n  dup2\n    /* \"#utility.yul\":1906:1920   */\n  lt\n    /* \"#utility.yul\":1898:2120   */\n  iszero\n  tag_35\n  jumpi\n    /* \"#utility.yul\":1994:2013   */\n  dup8\n  dup6\n  add\n    /* \"#utility.yul\":1988:2014   */\n  mload\n    /* \"#utility.yul\":1973:2015   */\n  dup3\n  sstore\n    /* \"#utility.yul\":2101:2105   */\n  0x20\n    /* \"#utility.yul\":2086:2106   */\n  swap5\n  dup6\n  add\n  swap5\n    /* \"#utility.yul\":2054:2055   */\n  0x01\n    /* \"#utility.yul\":2042:2056   */\n  swap1\n  swap3\n  add\n  swap2\n    /* \"#utility.yul\":1928:1940   */\n  add\n    /* \"#utility.yul\":1898:2120   */\n  jump(tag_33)\ntag_35:\n    /* \"#utility.yul\":1902:1905   */\n  pop\n    /* \"#utility.yul\":2148:2154   */\n  dup5\n    /* \"#utility.yul\":2139:2146   */\n  dup3\n    /* \"#utility.yul\":2136:2155   */\n  lt\n    /* \"#utility.yul\":2133:2334   */\n  iszero\n  tag_36\n  jumpi\n    /* \"#utility.yul\":2209:2228   */\n  dup7\n  dup5\n  add\n    /* \"#utility.yul\":2203:2229   */\n  mload\n  not(0x00)\n    /* \"#utility.yul\":2292:2293   */\n  0x03\n    /* \"#utility.yul\":2288:2302   */\n  dup8\n  swap1\n  shl\n    /* \"#utility.yul\":2304:2307   */\n  0xf8\n    /* \"#utility.yul\":2284:2308   */\n  and\n    /* \"#utility.yul\":2280:2317   */\n  shr\n    /* \"#utility.yul\":2276:2318   */\n  not\n    /* \"#utility.yul\":2261:2319   */\n  and\n    /* \"#utility.yul\":2246:2320   */\n  dup2\n  sstore\n    /* \"#utility.yul\":2133:2334   */\ntag_36:\n  pop\n  pop\n  pop\n  pop\n    /* \"#utility.yul\":2380:2381   */\n  0x01\n    /* \"#utility.yul\":2364:2378   */\n  swap1\n  dup2\n  shl\n    /* \"#utility.yul\":2360:2382   */\n  add\n    /* \"#utility.yul\":2347:2383   */\n  swap1\n  sstore\n  pop\n    /* \"#utility.yul\":1351:2650   */\n  jump\t// out\ntag_10:\n    /* \"contracts/Simple Voting.sol\":57:664  contract SimpleVoting {... */\n  dataSize(sub_0)\n  dup1\n  dataOffset(sub_0)\n  0x00\n  codecopy\n  0x00\n  return\nstop\n\nsub_0: assembly {\n        /* \"contracts/Simple Voting.sol\":57:664  contract SimpleVoting {... */\n      mstore(0x40, 0x80)\n      callvalue\n      dup1\n      iszero\n      tag_1\n      jumpi\n      revert(0x00, 0x00)\n    tag_1:\n      pop\n      jumpi(tag_2, lt(calldatasize, 0x04))\n      shr(0xe0, calldataload(0x00))\n      dup1\n      0x753ec103\n      gt\n      tag_10\n      jumpi\n      dup1\n      0x753ec103\n      eq\n      tag_6\n      jumpi\n      dup1\n      0x90cf581c\n      eq\n      tag_7\n      jumpi\n      dup1\n      0xb5b47f42\n      eq\n      tag_8\n      jumpi\n      dup1\n      0xfb286c65\n      eq\n      tag_9\n      jumpi\n      revert(0x00, 0x00)\n    tag_10:\n      dup1\n      0x09eef43e\n      eq\n      tag_3\n      jumpi\n      dup1\n      0x41c12a70\n      eq\n      tag_4\n      jumpi\n      dup1\n      0x4717f97c\n      eq\n      tag_5\n      jumpi\n    tag_2:\n      revert(0x00, 0x00)\n        /* \"contracts/Simple Voting.sol\":201:241  mapping(address => bool) public hasVoted */\n    tag_3:\n      tag_11\n      tag_12\n      calldatasize\n      0x04\n      tag_13\n      jump\t// in\n    tag_12:\n      mstore(0x20, 0x03)\n      0x00\n      swap1\n      dup2\n      mstore\n      0x40\n      swap1\n      keccak256\n      sload\n      0xff\n      and\n      dup2\n      jump\n    tag_11:\n      mload(0x40)\n        /* \"#utility.yul\":470:484   */\n      swap1\n      iszero\n        /* \"#utility.yul\":463:485   */\n      iszero\n        /* \"#utility.yul\":445:486   */\n      dup2\n      mstore\n        /* \"#utility.yul\":433:435   */\n      0x20\n        /* \"#utility.yul\":418:436   */\n      add\n        /* \"contracts/Simple Voting.sol\":201:241  mapping(address => bool) public hasVoted */\n    tag_15:\n      mload(0x40)\n      dup1\n      swap2\n      sub\n      swap1\n      return\n        /* \"contracts/Simple Voting.sol\":404:552  function voteNo() public {... */\n    tag_4:\n      tag_17\n      tag_18\n      jump\t// in\n    tag_17:\n      stop\n        /* \"contracts/Simple Voting.sol\":558:662  function getResults() public view returns (uint256, uint256) {... */\n    tag_5:\n        /* \"contracts/Simple Voting.sol\":637:645  yesVotes */\n      sload(0x01)\n        /* \"contracts/Simple Voting.sol\":647:654  noVotes */\n      sload(0x02)\n        /* \"contracts/Simple Voting.sol\":558:662  function getResults() public view returns (uint256, uint256) {... */\n      0x40\n      dup1\n      mload\n        /* \"#utility.yul\":671:696   */\n      swap3\n      dup4\n      mstore\n        /* \"#utility.yul\":727:729   */\n      0x20\n        /* \"#utility.yul\":712:730   */\n      dup4\n      add\n        /* \"#utility.yul\":705:739   */\n      swap2\n      swap1\n      swap2\n      mstore\n        /* \"#utility.yul\":644:662   */\n      add\n        /* \"contracts/Simple Voting.sol\":558:662  function getResults() public view returns (uint256, uint256) {... */\n      tag_15\n        /* \"#utility.yul\":497:745   */\n      jump\n        /* \"contracts/Simple Voting.sol\":85:130  string public proposal = \"Should we proceed?\" */\n    tag_6:\n      tag_23\n      tag_24\n      jump\t// in\n    tag_23:\n      mload(0x40)\n      tag_15\n      swap2\n      swap1\n      tag_26\n      jump\t// in\n        /* \"contracts/Simple Voting.sol\":248:398  function voteYes() public {... */\n    tag_7:\n      tag_17\n      tag_28\n      jump\t// in\n        /* \"contracts/Simple Voting.sol\":169:195  uint256 public noVotes = 0 */\n    tag_8:\n      tag_29\n      sload(0x02)\n      dup2\n      jump\n    tag_29:\n      mload(0x40)\n        /* \"#utility.yul\":1319:1344   */\n      swap1\n      dup2\n      mstore\n        /* \"#utility.yul\":1307:1309   */\n      0x20\n        /* \"#utility.yul\":1292:1310   */\n      add\n        /* \"contracts/Simple Voting.sol\":169:195  uint256 public noVotes = 0 */\n      tag_15\n        /* \"#utility.yul\":1173:1350   */\n      jump\n        /* \"contracts/Simple Voting.sol\":136:163  uint256 public yesVotes = 0 */\n    tag_9:\n      tag_29\n      sload(0x01)\n      dup2\n      jump\n        /* \"contracts/Simple Voting.sol\":404:552  function voteNo() public {... */\n    tag_18:\n        /* \"contracts/Simple Voting.sol\":457:467  msg.sender */\n      caller\n        /* \"contracts/Simple Voting.sol\":448:468  hasVoted[msg.sender] */\n      0x00\n      swap1\n      dup2\n      mstore\n        /* \"contracts/Simple Voting.sol\":448:456  hasVoted */\n      0x03\n        /* \"contracts/Simple Voting.sol\":448:468  hasVoted[msg.sender] */\n      0x20\n      mstore\n      0x40\n      swap1\n      keccak256\n      sload\n      0xff\n      and\n        /* \"contracts/Simple Voting.sol\":447:468  !hasVoted[msg.sender] */\n      iszero\n        /* \"contracts/Simple Voting.sol\":439:486  require(!hasVoted[msg.sender], \"Already voted\") */\n      tag_37\n      jumpi\n      mload(0x40)\n      shl(0xe5, 0x461bcd)\n      dup2\n      mstore\n        /* \"#utility.yul\":1557:1559   */\n      0x20\n        /* \"contracts/Simple Voting.sol\":439:486  require(!hasVoted[msg.sender], \"Already voted\") */\n      0x04\n      dup3\n      add\n        /* \"#utility.yul\":1539:1560   */\n      mstore\n        /* \"#utility.yul\":1596:1598   */\n      0x0d\n        /* \"#utility.yul\":1576:1594   */\n      0x24\n      dup3\n      add\n        /* \"#utility.yul\":1569:1599   */\n      mstore\n      shl(0x9a, 0x105b1c9958591e481d9bdd1959)\n        /* \"#utility.yul\":1615:1633   */\n      0x44\n      dup3\n      add\n        /* \"#utility.yul\":1608:1651   */\n      mstore\n        /* \"#utility.yul\":1668:1686   */\n      0x64\n      add\n        /* \"contracts/Simple Voting.sol\":439:486  require(!hasVoted[msg.sender], \"Already voted\") */\n    tag_38:\n      mload(0x40)\n      dup1\n      swap2\n      sub\n      swap1\n      revert\n    tag_37:\n        /* \"contracts/Simple Voting.sol\":507:508  1 */\n      0x01\n        /* \"contracts/Simple Voting.sol\":496:503  noVotes */\n      0x02\n      0x00\n        /* \"contracts/Simple Voting.sol\":496:508  noVotes += 1 */\n      dup3\n      dup3\n      sload\n      tag_40\n      swap2\n      swap1\n      tag_41\n      jump\t// in\n    tag_40:\n      swap1\n      swap2\n      sstore\n      pop\n      pop\n        /* \"contracts/Simple Voting.sol\":527:537  msg.sender */\n      caller\n        /* \"contracts/Simple Voting.sol\":518:538  hasVoted[msg.sender] */\n      0x00\n      swap1\n      dup2\n      mstore\n        /* \"contracts/Simple Voting.sol\":518:526  hasVoted */\n      0x03\n        /* \"contracts/Simple Voting.sol\":518:538  hasVoted[msg.sender] */\n      0x20\n      mstore\n      0x40\n      swap1\n      keccak256\n        /* \"contracts/Simple Voting.sol\":518:545  hasVoted[msg.sender] = true */\n      dup1\n      sload\n      not(0xff)\n      and\n        /* \"contracts/Simple Voting.sol\":541:545  true */\n      0x01\n        /* \"contracts/Simple Voting.sol\":518:545  hasVoted[msg.sender] = true */\n      or\n      swap1\n      sstore\n        /* \"contracts/Simple Voting.sol\":404:552  function voteNo() public {... */\n      jump\t// out\n        /* \"contracts/Simple Voting.sol\":85:130  string public proposal = \"Should we proceed?\" */\n    tag_24:\n      0x00\n      dup1\n      sload\n      tag_43\n      swap1\n      tag_44\n      jump\t// in\n    tag_43:\n      dup1\n      0x1f\n      add\n      0x20\n      dup1\n      swap2\n      div\n      mul\n      0x20\n      add\n      mload(0x40)\n      swap1\n      dup2\n      add\n      0x40\n      mstore\n      dup1\n      swap3\n      swap2\n      swap1\n      dup2\n      dup2\n      mstore\n      0x20\n      add\n      dup3\n      dup1\n      sload\n      tag_45\n      swap1\n      tag_44\n      jump\t// in\n    tag_45:\n      dup1\n      iszero\n      tag_46\n      jumpi\n      dup1\n      0x1f\n      lt\n      tag_47\n      jumpi\n      0x0100\n      dup1\n      dup4\n      sload\n      div\n      mul\n      dup4\n      mstore\n      swap2\n      0x20\n      add\n      swap2\n      jump(tag_46)\n    tag_47:\n      dup3\n      add\n      swap2\n      swap1\n      0x00\n      mstore\n      keccak256(0x00, 0x20)\n      swap1\n    tag_48:\n      dup2\n      sload\n      dup2\n      mstore\n      swap1\n      0x01\n      add\n      swap1\n      0x20\n      add\n      dup1\n      dup4\n      gt\n      tag_48\n      jumpi\n      dup3\n      swap1\n      sub\n      0x1f\n      and\n      dup3\n      add\n      swap2\n    tag_46:\n      pop\n      pop\n      pop\n      pop\n      pop\n      dup2\n      jump\t// out\n        /* \"contracts/Simple Voting.sol\":248:398  function voteYes() public {... */\n    tag_28:\n        /* \"contracts/Simple Voting.sol\":302:312  msg.sender */\n      caller\n        /* \"contracts/Simple Voting.sol\":293:313  hasVoted[msg.sender] */\n      0x00\n      swap1\n      dup2\n      mstore\n        /* \"contracts/Simple Voting.sol\":293:301  hasVoted */\n      0x03\n        /* \"contracts/Simple Voting.sol\":293:313  hasVoted[msg.sender] */\n      0x20\n      mstore\n      0x40\n      swap1\n      keccak256\n      sload\n      0xff\n      and\n        /* \"contracts/Simple Voting.sol\":292:313  !hasVoted[msg.sender] */\n      iszero\n        /* \"contracts/Simple Voting.sol\":284:331  require(!hasVoted[msg.sender], \"Already voted\") */\n      tag_50\n      jumpi\n      mload(0x40)\n      shl(0xe5, 0x461bcd)\n      dup2\n      mstore\n        /* \"#utility.yul\":1557:1559   */\n      0x20\n        /* \"contracts/Simple Voting.sol\":284:331  require(!hasVoted[msg.sender], \"Already voted\") */\n      0x04\n      dup3\n      add\n        /* \"#utility.yul\":1539:1560   */\n      mstore\n        /* \"#utility.yul\":1596:1598   */\n      0x0d\n        /* \"#utility.yul\":1576:1594   */\n      0x24\n      dup3\n      add\n        /* \"#utility.yul\":1569:1599   */\n      mstore\n      shl(0x9a, 0x105b1c9958591e481d9bdd1959)\n        /* \"#utility.yul\":1615:1633   */\n      0x44\n      dup3\n      add\n        /* \"#utility.yul\":1608:1651   */\n      mstore\n        /* \"#utility.yul\":1668:1686   */\n      0x64\n      add\n        /* \"contracts/Simple Voting.sol\":284:331  require(!hasVoted[msg.sender], \"Already voted\") */\n      tag_38\n        /* \"#utility.yul\":1355:1692   */\n      jump\n        /* \"contracts/Simple Voting.sol\":284:331  require(!hasVoted[msg.sender], \"Already voted\") */\n    tag_50:\n        /* \"contracts/Simple Voting.sol\":353:354  1 */\n      0x01\n        /* \"contracts/Simple Voting.sol\":341:349  yesVotes */\n      dup1\n      0x00\n        /* \"contracts/Simple Voting.sol\":341:354  yesVotes += 1 */\n      dup3\n      dup3\n      sload\n      tag_40\n      swap2\n      swap1\n      tag_41\n      jump\t// in\n        /* \"#utility.yul\":14:300   */\n    tag_13:\n        /* \"#utility.yul\":73:79   */\n      0x00\n        /* \"#utility.yul\":126:128   */\n      0x20\n        /* \"#utility.yul\":114:123   */\n      dup3\n        /* \"#utility.yul\":105:112   */\n      dup5\n        /* \"#utility.yul\":101:124   */\n      sub\n        /* \"#utility.yul\":97:129   */\n      slt\n        /* \"#utility.yul\":94:146   */\n      iszero\n      tag_55\n      jumpi\n        /* \"#utility.yul\":142:143   */\n      0x00\n        /* \"#utility.yul\":139:140   */\n      0x00\n        /* \"#utility.yul\":132:144   */\n      revert\n        /* \"#utility.yul\":94:146   */\n    tag_55:\n        /* \"#utility.yul\":168:191   */\n      dup2\n      calldataload\n      sub(shl(0xa0, 0x01), 0x01)\n        /* \"#utility.yul\":220:251   */\n      dup2\n      and\n        /* \"#utility.yul\":210:252   */\n      dup2\n      eq\n        /* \"#utility.yul\":200:270   */\n      tag_56\n      jumpi\n        /* \"#utility.yul\":266:267   */\n      0x00\n        /* \"#utility.yul\":263:264   */\n      0x00\n        /* \"#utility.yul\":256:268   */\n      revert\n        /* \"#utility.yul\":200:270   */\n    tag_56:\n        /* \"#utility.yul\":289:294   */\n      swap4\n        /* \"#utility.yul\":14:300   */\n      swap3\n      pop\n      pop\n      pop\n      jump\t// out\n        /* \"#utility.yul\":750:1168   */\n    tag_26:\n        /* \"#utility.yul\":899:901   */\n      0x20\n        /* \"#utility.yul\":888:897   */\n      dup2\n        /* \"#utility.yul\":881:902   */\n      mstore\n        /* \"#utility.yul\":862:866   */\n      0x00\n        /* \"#utility.yul\":931:937   */\n      dup3\n        /* \"#utility.yul\":925:938   */\n      mload\n        /* \"#utility.yul\":974:980   */\n      dup1\n        /* \"#utility.yul\":969:971   */\n      0x20\n        /* \"#utility.yul\":958:967   */\n      dup5\n        /* \"#utility.yul\":954:972   */\n      add\n        /* \"#utility.yul\":947:981   */\n      mstore\n        /* \"#utility.yul\":1033:1039   */\n      dup1\n        /* \"#utility.yul\":1028:1030   */\n      0x20\n        /* \"#utility.yul\":1020:1026   */\n      dup6\n        /* \"#utility.yul\":1016:1031   */\n      add\n        /* \"#utility.yul\":1011:1013   */\n      0x40\n        /* \"#utility.yul\":1000:1009   */\n      dup6\n        /* \"#utility.yul\":996:1014   */\n      add\n        /* \"#utility.yul\":990:1040   */\n      mcopy\n        /* \"#utility.yul\":1089:1090   */\n      0x00\n        /* \"#utility.yul\":1084:1086   */\n      0x40\n        /* \"#utility.yul\":1075:1081   */\n      dup3\n        /* \"#utility.yul\":1064:1073   */\n      dup6\n        /* \"#utility.yul\":1060:1082   */\n      add\n        /* \"#utility.yul\":1056:1087   */\n      add\n        /* \"#utility.yul\":1049:1091   */\n      mstore\n        /* \"#utility.yul\":1159:1161   */\n      0x40\n        /* \"#utility.yul\":1152:1154   */\n      0x1f\n        /* \"#utility.yul\":1148:1155   */\n      not\n        /* \"#utility.yul\":1143:1145   */\n      0x1f\n        /* \"#utility.yul\":1135:1141   */\n      dup4\n        /* \"#utility.yul\":1131:1146   */\n      add\n        /* \"#utility.yul\":1127:1156   */\n      and\n        /* \"#utility.yul\":1116:1125   */\n      dup5\n        /* \"#utility.yul\":1112:1157   */\n      add\n        /* \"#utility.yul\":1108:1162   */\n      add\n        /* \"#utility.yul\":1100:1162   */\n      swap2\n      pop\n      pop\n        /* \"#utility.yul\":750:1168   */\n      swap3\n      swap2\n      pop\n      pop\n      jump\t// out\n        /* \"#utility.yul\":1697:1919   */\n    tag_41:\n        /* \"#utility.yul\":1762:1771   */\n      dup1\n      dup3\n      add\n        /* \"#utility.yul\":1783:1793   */\n      dup1\n      dup3\n      gt\n        /* \"#utility.yul\":1780:1913   */\n      iszero\n      tag_63\n      jumpi\n        /* \"#utility.yul\":1835:1845   */\n      0x4e487b71\n        /* \"#utility.yul\":1830:1833   */\n      0xe0\n        /* \"#utility.yul\":1826:1846   */\n      shl\n        /* \"#utility.yul\":1823:1824   */\n      0x00\n        /* \"#utility.yul\":1816:1847   */\n      mstore\n        /* \"#utility.yul\":1870:1874   */\n      0x11\n        /* \"#utility.yul\":1867:1868   */\n      0x04\n        /* \"#utility.yul\":1860:1875   */\n      mstore\n        /* \"#utility.yul\":1898:1902   */\n      0x24\n        /* \"#utility.yul\":1895:1896   */\n      0x00\n        /* \"#utility.yul\":1888:1903   */\n      revert\n        /* \"#utility.yul\":1780:1913   */\n    tag_63:\n        /* \"#utility.yul\":1697:1919   */\n      swap3\n      swap2\n      pop\n      pop\n      jump\t// out\n        /* \"#utility.yul\":1924:2304   */\n    tag_44:\n        /* \"#utility.yul\":2003:2004   */\n      0x01\n        /* \"#utility.yul\":1999:2011   */\n      dup2\n      dup2\n      shr\n      swap1\n        /* \"#utility.yul\":2046:2058   */\n      dup3\n      and\n      dup1\n        /* \"#utility.yul\":2067:2128   */\n      tag_65\n      jumpi\n        /* \"#utility.yul\":2121:2125   */\n      0x7f\n        /* \"#utility.yul\":2113:2119   */\n      dup3\n        /* \"#utility.yul\":2109:2126   */\n      and\n        /* \"#utility.yul\":2099:2126   */\n      swap2\n      pop\n        /* \"#utility.yul\":2067:2128   */\n    tag_65:\n        /* \"#utility.yul\":2174:2176   */\n      0x20\n        /* \"#utility.yul\":2166:2172   */\n      dup3\n        /* \"#utility.yul\":2163:2177   */\n      lt\n        /* \"#utility.yul\":2143:2161   */\n      dup2\n        /* \"#utility.yul\":2140:2178   */\n      sub\n        /* \"#utility.yul\":2137:2298   */\n      tag_66\n      jumpi\n        /* \"#utility.yul\":2220:2230   */\n      0x4e487b71\n        /* \"#utility.yul\":2215:2218   */\n      0xe0\n        /* \"#utility.yul\":2211:2231   */\n      shl\n        /* \"#utility.yul\":2208:2209   */\n      0x00\n        /* \"#utility.yul\":2201:2232   */\n      mstore\n        /* \"#utility.yul\":2255:2259   */\n      0x22\n        /* \"#utility.yul\":2252:2253   */\n      0x04\n        /* \"#utility.yul\":2245:2260   */\n      mstore\n        /* \"#utility.yul\":2283:2287   */\n      0x24\n        /* \"#utility.yul\":2280:2281   */\n      0x00\n        /* \"#utility.yul\":2273:2288   */\n      revert\n        /* \"#utility.yul\":2137:2298   */\n    tag_66:\n      pop\n        /* \"#utility.yul\":1924:2304   */\n      swap2\n      swap1\n      pop\n      jump\t// out\n\n    auxdata: 0xa264697066735822122009e8481b2271266dac32a7873b510ac4efdb0c2f24d449fb9da6bec56c7acf4264736f6c634300081f0033\n}\n",
				"bytecode": {
					"linkReferences": {},
					"object": "60c0604052601260809081527153686f756c642077652070726f636565643f60701b60a0525f9061003090826100e2565b505f6001555f600255348015610044575f5ffd5b5061019c565b634e487b7160e01b5f52604160045260245ffd5b600181811c9082168061007257607f821691505b60208210810361009057634e487b7160e01b5f52602260045260245ffd5b50919050565b601f8211156100dd57805f5260205f20601f840160051c810160208510156100bb5750805b601f840160051c820191505b818110156100da575f81556001016100c7565b50505b505050565b81516001600160401b038111156100fb576100fb61004a565b61010f81610109845461005e565b84610096565b6020601f821160018114610141575f831561012a5750848201515b5f19600385901b1c1916600184901b1784556100da565b5f84815260208120601f198516915b828110156101705787850151825560209485019460019092019101610150565b508482101561018d57868401515f19600387901b60f8161c191681555b50505050600190811b01905550565b61037d806101a95f395ff3fe608060405234801561000f575f5ffd5b506004361061007a575f3560e01c8063753ec10311610058578063753ec103146100da57806390cf581c146100ef578063b5b47f42146100f7578063fb286c651461010e575f5ffd5b806309eef43e1461007e57806341c12a70146100b55780634717f97c146100bf575b5f5ffd5b6100a061008c366004610288565b60036020525f908152604090205460ff1681565b60405190151581526020015b60405180910390f35b6100bd610117565b005b600154600254604080519283526020830191909152016100ac565b6100e261019d565b6040516100ac91906102b5565b6100bd610228565b61010060025481565b6040519081526020016100ac565b61010060015481565b335f9081526003602052604090205460ff161561016b5760405162461bcd60e51b815260206004820152600d60248201526c105b1c9958591e481d9bdd1959609a1b60448201526064015b60405180910390fd5b600160025f82825461017d91906102ea565b9091555050335f908152600360205260409020805460ff19166001179055565b5f80546101a99061030f565b80601f01602080910402602001604051908101604052809291908181526020018280546101d59061030f565b80156102205780601f106101f757610100808354040283529160200191610220565b820191905f5260205f20905b81548152906001019060200180831161020357829003601f168201915b505050505081565b335f9081526003602052604090205460ff16156102775760405162461bcd60e51b815260206004820152600d60248201526c105b1c9958591e481d9bdd1959609a1b6044820152606401610162565b6001805f82825461017d91906102ea565b5f60208284031215610298575f5ffd5b81356001600160a01b03811681146102ae575f5ffd5b9392505050565b602081525f82518060208401528060208501604085015e5f604082850101526040601f19601f83011684010191505092915050565b8082018082111561030957634e487b7160e01b5f52601160045260245ffd5b92915050565b600181811c9082168061032357607f821691505b60208210810361034157634e487b7160e01b5f52602260045260245ffd5b5091905056fea264697066735822122009e8481b2271266dac32a7873b510ac4efdb0c2f24d449fb9da6bec56c7acf4264736f6c634300081f0033",
					"opcodes": "PUSH1 0xC0 PUSH1 0x40 MSTORE PUSH1 0x12 PUSH1 0x80 SWAP1 DUP2 MSTORE PUSH18 0x53686F756C642077652070726F636565643F PUSH1 0x70 SHL PUSH1 0xA0 MSTORE PUSH0 SWAP1 PUSH2 0x30 SWAP1 DUP3 PUSH2 0xE2 JUMP JUMPDEST POP PUSH0 PUSH1 0x1 SSTORE PUSH0 PUSH1 0x2 SSTORE CALLVALUE DUP1 ISZERO PUSH2 0x44 JUMPI PUSH0 PUSH0 REVERT JUMPDEST POP PUSH2 0x19C JUMP JUMPDEST PUSH4 0x4E487B71 PUSH1 0xE0 SHL PUSH0 MSTORE PUSH1 0x41 PUSH1 0x4 MSTORE PUSH1 0x24 PUSH0 REVERT JUMPDEST PUSH1 0x1 DUP2 DUP2 SHR SWAP1 DUP3 AND DUP1 PUSH2 0x72 JUMPI PUSH1 0x7F DUP3 AND SWAP2 POP JUMPDEST PUSH1 0x20 DUP3 LT DUP2 SUB PUSH2 0x90 JUMPI PUSH4 0x4E487B71 PUSH1 0xE0 SHL PUSH0 MSTORE PUSH1 0x22 PUSH1 0x4 MSTORE PUSH1 0x24 PUSH0 REVERT JUMPDEST POP SWAP2 SWAP1 POP JUMP JUMPDEST PUSH1 0x1F DUP3 GT ISZERO PUSH2 0xDD JUMPI DUP1 PUSH0 MSTORE PUSH1 0x20 PUSH0 KECCAK256 PUSH1 0x1F DUP5 ADD PUSH1 0x5 SHR DUP2 ADD PUSH1 0x20 DUP6 LT ISZERO PUSH2 0xBB JUMPI POP DUP1 JUMPDEST PUSH1 0x1F DUP5 ADD PUSH1 0x5 SHR DUP3 ADD SWAP2 POP JUMPDEST DUP2 DUP2 LT ISZERO PUSH2 0xDA JUMPI PUSH0 DUP2 SSTORE PUSH1 0x1 ADD PUSH2 0xC7 JUMP JUMPDEST POP POP JUMPDEST POP POP POP JUMP JUMPDEST DUP2 MLOAD PUSH1 0x1 PUSH1 0x1 PUSH1 0x40 SHL SUB DUP2 GT ISZERO PUSH2 0xFB JUMPI PUSH2 0xFB PUSH2 0x4A JUMP JUMPDEST PUSH2 0x10F DUP2 PUSH2 0x109 DUP5 SLOAD PUSH2 0x5E JUMP JUMPDEST DUP5 PUSH2 0x96 JUMP JUMPDEST PUSH1 0x20 PUSH1 0x1F DUP3 GT PUSH1 0x1 DUP2 EQ PUSH2 0x141 JUMPI PUSH0 DUP4 ISZERO PUSH2 0x12A JUMPI POP DUP5 DUP3 ADD MLOAD JUMPDEST PUSH0 NOT PUSH1 0x3 DUP6 SWAP1 SHL SHR NOT AND PUSH1 0x1 DUP5 SWAP1 SHL OR DUP5 SSTORE PUSH2 0xDA JUMP JUMPDEST PUSH0 DUP5 DUP2 MSTORE PUSH1 0x20 DUP2 KECCAK256 PUSH1 0x1F NOT DUP6 AND SWAP2 JUMPDEST DUP3 DUP2 LT ISZERO PUSH2 0x170 JUMPI DUP8 DUP6 ADD MLOAD DUP3 SSTORE PUSH1 0x20 SWAP5 DUP6 ADD SWAP5 PUSH1 0x1 SWAP1 SWAP3 ADD SWAP2 ADD PUSH2 0x150 JUMP JUMPDEST POP DUP5 DUP3 LT ISZERO PUSH2 0x18D JUMPI DUP7 DUP5 ADD MLOAD PUSH0 NOT PUSH1 0x3 DUP8 SWAP1 SHL PUSH1 0xF8 AND SHR NOT AND DUP2 SSTORE JUMPDEST POP POP POP POP PUSH1 0x1 SWAP1 DUP2 SHL ADD SWAP1 SSTORE POP JUMP JUMPDEST PUSH2 0x37D DUP1 PUSH2 0x1A9 PUSH0 CODECOPY PUSH0 RETURN INVALID PUSH1 0x80 PUSH1 0x40 MSTORE CALLVALUE DUP1 ISZERO PUSH2 0xF JUMPI PUSH0 PUSH0 REVERT JUMPDEST POP PUSH1 0x4 CALLDATASIZE LT PUSH2 0x7A JUMPI PUSH0 CALLDATALOAD PUSH1 0xE0 SHR DUP1 PUSH4 0x753EC103 GT PUSH2 0x58 JUMPI DUP1 PUSH4 0x753EC103 EQ PUSH2 0xDA JUMPI DUP1 PUSH4 0x90CF581C EQ PUSH2 0xEF JUMPI DUP1 PUSH4 0xB5B47F42 EQ PUSH2 0xF7 JUMPI DUP1 PUSH4 0xFB286C65 EQ PUSH2 0x10E JUMPI PUSH0 PUSH0 REVERT JUMPDEST DUP1 PUSH4 0x9EEF43E EQ PUSH2 0x7E JUMPI DUP1 PUSH4 0x41C12A70 EQ PUSH2 0xB5 JUMPI DUP1 PUSH4 0x4717F97C EQ PUSH2 0xBF JUMPI JUMPDEST PUSH0 PUSH0 REVERT JUMPDEST PUSH2 0xA0 PUSH2 0x8C CALLDATASIZE PUSH1 0x4 PUSH2 0x288 JUMP JUMPDEST PUSH1 0x3 PUSH1 0x20 MSTORE PUSH0 SWAP1 DUP2 MSTORE PUSH1 0x40 SWAP1 KECCAK256 SLOAD PUSH1 0xFF AND DUP2 JUMP JUMPDEST PUSH1 0x40 MLOAD SWAP1 ISZERO ISZERO DUP2 MSTORE PUSH1 0x20 ADD JUMPDEST PUSH1 0x40 MLOAD DUP1 SWAP2 SUB SWAP1 RETURN JUMPDEST PUSH2 0xBD PUSH2 0x117 JUMP JUMPDEST STOP JUMPDEST PUSH1 0x1 SLOAD PUSH1 0x2 SLOAD PUSH1 0x40 DUP1 MLOAD SWAP3 DUP4 MSTORE PUSH1 0x20 DUP4 ADD SWAP2 SWAP1 SWAP2 MSTORE ADD PUSH2 0xAC JUMP JUMPDEST PUSH2 0xE2 PUSH2 0x19D JUMP JUMPDEST PUSH1 0x40 MLOAD PUSH2 0xAC SWAP2 SWAP1 PUSH2 0x2B5 JUMP JUMPDEST PUSH2 0xBD PUSH2 0x228 JUMP JUMPDEST PUSH2 0x100 PUSH1 0x2 SLOAD DUP2 JUMP JUMPDEST PUSH1 0x40 MLOAD SWAP1 DUP2 MSTORE PUSH1 0x20 ADD PUSH2 0xAC JUMP JUMPDEST PUSH2 0x100 PUSH1 0x1 SLOAD DUP2 JUMP JUMPDEST CALLER PUSH0 SWAP1 DUP2 MSTORE PUSH1 0x3 PUSH1 0x20 MSTORE PUSH1 0x40 SWAP1 KECCAK256 SLOAD PUSH1 0xFF AND ISZERO PUSH2 0x16B JUMPI PUSH1 0x40 MLOAD PUSH3 0x461BCD PUSH1 0xE5 SHL DUP2 MSTORE PUSH1 0x20 PUSH1 0x4 DUP3 ADD MSTORE PUSH1 0xD PUSH1 0x24 DUP3 ADD MSTORE PUSH13 0x105B1C9958591E481D9BDD1959 PUSH1 0x9A SHL PUSH1 0x44 DUP3 ADD MSTORE PUSH1 0x64 ADD JUMPDEST PUSH1 0x40 MLOAD DUP1 SWAP2 SUB SWAP1 REVERT JUMPDEST PUSH1 0x1 PUSH1 0x2 PUSH0 DUP3 DUP3 SLOAD PUSH2 0x17D SWAP2 SWAP1 PUSH2 0x2EA JUMP JUMPDEST SWAP1 SWAP2 SSTORE POP POP CALLER PUSH0 SWAP1 DUP2 MSTORE PUSH1 0x3 PUSH1 0x20 MSTORE PUSH1 0x40 SWAP1 KECCAK256 DUP1 SLOAD PUSH1 0xFF NOT AND PUSH1 0x1 OR SWAP1 SSTORE JUMP JUMPDEST PUSH0 DUP1 SLOAD PUSH2 0x1A9 SWAP1 PUSH2 0x30F JUMP JUMPDEST DUP1 PUSH1 0x1F ADD PUSH1 0x20 DUP1 SWAP2 DIV MUL PUSH1 0x20 ADD PUSH1 0x40 MLOAD SWAP1 DUP2 ADD PUSH1 0x40 MSTORE DUP1 SWAP3 SWAP2 SWAP1 DUP2 DUP2 MSTORE PUSH1 0x20 ADD DUP3 DUP1 SLOAD PUSH2 0x1D5 SWAP1 PUSH2 0x30F JUMP JUMPDEST DUP1 ISZERO PUSH2 0x220 JUMPI DUP1 PUSH1 0x1F LT PUSH2 0x1F7 JUMPI PUSH2 0x100 DUP1 DUP4 SLOAD DIV MUL DUP4 MSTORE SWAP2 PUSH1 0x20 ADD SWAP2 PUSH2 0x220 JUMP JUMPDEST DUP3 ADD SWAP2 SWAP1 PUSH0 MSTORE PUSH1 0x20 PUSH0 KECCAK256 SWAP1 JUMPDEST DUP2 SLOAD DUP2 MSTORE SWAP1 PUSH1 0x1 ADD SWAP1 PUSH1 0x20 ADD DUP1 DUP4 GT PUSH2 0x203 JUMPI DUP3 SWAP1 SUB PUSH1 0x1F AND DUP3 ADD SWAP2 JUMPDEST POP POP POP POP POP DUP2 JUMP JUMPDEST CALLER PUSH0 SWAP1 DUP2 MSTORE PUSH1 0x3 PUSH1 0x20 MSTORE PUSH1 0x40 SWAP1 KECCAK256 SLOAD PUSH1 0xFF AND ISZERO PUSH2 0x277 JUMPI PUSH1 0x40 MLOAD PUSH3 0x461BCD PUSH1 0xE5 SHL DUP2 MSTORE PUSH1 0x20 PUSH1 0x4 DUP3 ADD MSTORE PUSH1 0xD PUSH1 0x24 DUP3 ADD MSTORE PUSH13 0x105B1C9958591E481D9BDD1959 PUSH1 0x9A SHL PUSH1 0x44 DUP3 ADD MSTORE PUSH1 0x64 ADD PUSH2 0x162 JUMP JUMPDEST PUSH1 0x1 DUP1 PUSH0 DUP3 DUP3 SLOAD PUSH2 0x17D SWAP2 SWAP1 PUSH2 0x2EA JUMP JUMPDEST PUSH0 PUSH1 0x20 DUP3 DUP5 SUB SLT ISZERO PUSH2 0x298 JUMPI PUSH0 PUSH0 REVERT JUMPDEST DUP2 CALLDATALOAD PUSH1 0x1 PUSH1 0x1 PUSH1 0xA0 SHL SUB DUP2 AND DUP2 EQ PUSH2 0x2AE JUMPI PUSH0 PUSH0 REVERT JUMPDEST SWAP4 SWAP3 POP POP POP JUMP JUMPDEST PUSH1 0x20 DUP2 MSTORE PUSH0 DUP3 MLOAD DUP1 PUSH1 0x20 DUP5 ADD MSTORE DUP1 PUSH1 0x20 DUP6 ADD PUSH1 0x40 DUP6 ADD MCOPY PUSH0 PUSH1 0x40 DUP3 DUP6 ADD ADD MSTORE PUSH1 0x40 PUSH1 0x1F NOT PUSH1 0x1F DUP4 ADD AND DUP5 ADD ADD SWAP2 POP POP SWAP3 SWAP2 POP POP JUMP JUMPDEST DUP1 DUP3 ADD DUP1 DUP3 GT ISZERO PUSH2 0x309 JUMPI PUSH4 0x4E487B71 PUSH1 0xE0 SHL PUSH0 MSTORE PUSH1 0x11 PUSH1 0x4 MSTORE PUSH1 0x24 PUSH0 REVERT JUMPDEST SWAP3 SWAP2 POP POP JUMP JUMPDEST PUSH1 0x1 DUP2 DUP2 SHR SWAP1 DUP3 AND DUP1 PUSH2 0x323 JUMPI PUSH1 0x7F DUP3 AND SWAP2 POP JUMPDEST PUSH1 0x20 DUP3 LT DUP2 SUB PUSH2 0x341 JUMPI PUSH4 0x4E487B71 PUSH1 0xE0 SHL PUSH0 MSTORE PUSH1 0x22 PUSH1 0x4 MSTORE PUSH1 0x24 PUSH0 REVERT JUMPDEST POP SWAP2 SWAP1 POP JUMP INVALID LOG2 PUSH5 0x6970667358 0x22 SLT KECCAK256 MULMOD 0xE8 BASEFEE SHL 0x22 PUSH18 0x266DAC32A7873B510AC4EFDB0C2F24D449FB SWAP14 0xA6 0xBE 0xC5 PUSH13 0x7ACF4264736F6C634300081F00 CALLER "
				},
				"gasEstimates": {
					"creation": {
						"codeDepositCost": "178600",
						"executionCost": "infinite",
						"totalCost": "infinite"
					},
					"external": {
						"getResults()": "4451",
						"hasVoted(address)": "2483",
						"noVotes()": "2338",
						"proposal()": "infinite",
						"voteNo()": "50949",
						"voteYes()": "50948",
						"yesVotes()": "2360"
					}
				},
				"methodIdentifiers": {
					"getResults()": "4717f97c",
					"hasVoted(address)": "09eef43e",
					"noVotes()": "b5b47f42",
					"proposal()": "753ec103",
					"voteNo()": "41c12a70",
					"voteYes()": "90cf581c",
					"yesVotes()": "fb286c65"
				}
			},
			"storageLayout": {
				"storage": [
					{
						"astId": 4,
						"contract": "contracts/Simple Voting.sol:SimpleVoting",
						"label": "proposal",
						"offset": 0,
						"slot": "0",
						"type": "t_string_storage"
					},
					{
						"astId": 7,
						"contract": "contracts/Simple Voting.sol:SimpleVoting",
						"label": "yesVotes",
						"offset": 0,
						"slot": "1",
						"type": "t_uint256"
					},
					{
						"astId": 10,
						"contract": "contracts/Simple Voting.sol:SimpleVoting",
						"label": "noVotes",
						"offset": 0,
						"slot": "2",
						"type": "t_uint256"
					},
					{
						"astId": 14,
						"contract": "contracts/Simple Voting.sol:SimpleVoting",
						"label": "hasVoted",
						"offset": 0,
						"slot": "3",
						"type": "t_mapping(t_address,t_bool)"
					}
				],
				"types": {
					"t_address": {
						"encoding": "inplace",
						"label": "address",
						"numberOfBytes": "20"
					},
					"t_bool": {
						"encoding": "inplace",
						"label": "bool",
						"numberOfBytes": "1"
					},
					"t_mapping(t_address,t_bool)": {
						"encoding": "mapping",
						"key": "t_address",
						"label": "mapping(address => bool)",
						"numberOfBytes": "32",
						"value": "t_bool"
					},
					"t_string_storage": {
						"encoding": "bytes",
						"label": "string",
						"numberOfBytes": "32"
					},
					"t_uint256": {
						"encoding": "inplace",
						"label": "uint256",
						"numberOfBytes": "32"
					}
				}
			},
			"userdoc": {
				"kind": "user",
				"methods": {},
				"version": 1
			}
		}
	}
}