{
	"contracts/Daily Gratitude Journal.sol": {
		"GratitudeJournal": {
			"abi": [
				{
					"inputs": [
						{
							"internalType": "string",
							"name": "_note",
							"type": "string"
						}
					],
					"name": "addGratitude",
					"outputs": [],
					"stateMutability": "nonpayable",
					"type": "function"
				},
				{
					"inputs": [],
					"name": "getEntryCount",
					"outputs": [
						{
							"internalType": "uint256",
							"name": "",
							"type": "uint256"
						}
					],
					"stateMutability": "view",
					"type": "function"
				},
				{
					"inputs": [],
					"name": "getMyEntries",
					"outputs": [
						{
							"components": [
								{
									"internalType": "string",
									"name": "note",
									"type": "string"
								},
								{
									"internalType": "uint256",
									"name": "timestamp",
									"type": "uint256"
								}
							],
							"internalType": "struct GratitudeJournal.Entry[]",
							"name": "",
							"type": "tuple[]"
						}
					],
					"stateMutability": "view",
					"type": "function"
				},
				{
					"inputs": [
						{
							"internalType": "address",
							"name": "",
							"type": "address"
						},
						{
							"internalType": "uint256",
							"name": "",
							"type": "uint256"
						}
					],
					"name": "journals",
					"outputs": [
						{
							"internalType": "string",
							"name": "note",
							"type": "string"
						},
						{
							"internalType": "uint256",
							"name": "timestamp",
							"type": "uint256"
						}
					],
					"stateMutability": "view",
					"type": "function"
				}
			],
			"devdoc": {
				"kind": "dev",
				"methods": {},
				"version": 1
			},
			"evm": {
				"assembly": "    /* \"contracts/Daily Gratitude Journal.sol\":58:644  contract GratitudeJournal {... */\n  mstore(0x40, 0x80)\n  callvalue\n  dup1\n  iszero\n  tag_1\n  jumpi\n  revert(0x00, 0x00)\ntag_1:\n  pop\n  dataSize(sub_0)\n  dup1\n  dataOffset(sub_0)\n  0x00\n  codecopy\n  0x00\n  return\nstop\n\nsub_0: assembly {\n        /* \"contracts/Daily Gratitude Journal.sol\":58:644  contract GratitudeJournal {... */\n      mstore(0x40, 0x80)\n      callvalue\n      dup1\n      iszero\n      tag_1\n      jumpi\n      revert(0x00, 0x00)\n    tag_1:\n      pop\n      jumpi(tag_2, lt(calldatasize, 0x04))\n      shr(0xe0, calldataload(0x00))\n      dup1\n      0x13191a6e\n      eq\n      tag_3\n      jumpi\n      dup1\n      0x468437c8\n      eq\n      tag_4\n      jumpi\n      dup1\n      0x7a360e65\n      eq\n      tag_5\n      jumpi\n      dup1\n      0xfc9ccfe7\n      eq\n      tag_6\n      jumpi\n    tag_2:\n      revert(0x00, 0x00)\n        /* \"contracts/Daily Gratitude Journal.sol\":421:526  function getMyEntries() public view returns (Entry[] memory) {... */\n    tag_3:\n      tag_7\n      tag_8\n      jump\t// in\n    tag_7:\n      mload(0x40)\n      tag_9\n      swap2\n      swap1\n      tag_10\n      jump\t// in\n    tag_9:\n      mload(0x40)\n      dup1\n      swap2\n      sub\n      swap1\n      return\n        /* \"contracts/Daily Gratitude Journal.sol\":168:211  mapping(address => Entry[]) public journals */\n    tag_4:\n      tag_11\n      tag_12\n      calldatasize\n      0x04\n      tag_13\n      jump\t// in\n    tag_12:\n      tag_14\n      jump\t// in\n    tag_11:\n      mload(0x40)\n      tag_9\n      swap3\n      swap2\n      swap1\n      tag_16\n      jump\t// in\n        /* \"contracts/Daily Gratitude Journal.sol\":536:642  function getEntryCount() public view returns (uint256) {... */\n    tag_5:\n        /* \"contracts/Daily Gratitude Journal.sol\":617:627  msg.sender */\n      caller\n        /* \"contracts/Daily Gratitude Journal.sol\":582:589  uint256 */\n      0x00\n        /* \"contracts/Daily Gratitude Journal.sol\":608:628  journals[msg.sender] */\n      swap1\n      dup2\n      mstore\n      0x20\n      dup2\n      swap1\n      mstore\n      0x40\n      swap1\n      keccak256\n        /* \"contracts/Daily Gratitude Journal.sol\":608:635  journals[msg.sender].length */\n      sload\n        /* \"contracts/Daily Gratitude Journal.sol\":536:642  function getEntryCount() public view returns (uint256) {... */\n      mload(0x40)\n        /* \"#utility.yul\":2122:2147   */\n      swap1\n      dup2\n      mstore\n        /* \"#utility.yul\":2110:2112   */\n      0x20\n        /* \"#utility.yul\":2095:2113   */\n      add\n        /* \"contracts/Daily Gratitude Journal.sol\":536:642  function getEntryCount() public view returns (uint256) {... */\n      tag_9\n        /* \"#utility.yul\":1976:2153   */\n      jump\n        /* \"contracts/Daily Gratitude Journal.sol\":222:411  function addGratitude(string memory _note) public {... */\n    tag_6:\n      tag_21\n      tag_22\n      calldatasize\n      0x04\n      tag_23\n      jump\t// in\n    tag_22:\n      tag_24\n      jump\t// in\n    tag_21:\n      stop\n        /* \"contracts/Daily Gratitude Journal.sol\":421:526  function getMyEntries() public view returns (Entry[] memory) {... */\n    tag_8:\n        /* \"contracts/Daily Gratitude Journal.sol\":508:518  msg.sender */\n      caller\n        /* \"contracts/Daily Gratitude Journal.sol\":499:507  journals */\n      0x00\n        /* \"contracts/Daily Gratitude Journal.sol\":499:519  journals[msg.sender] */\n      swap1\n      dup2\n      mstore\n      0x20\n      dup2\n      dup2\n      mstore\n      0x40\n      dup1\n      dup4\n      keccak256\n        /* \"contracts/Daily Gratitude Journal.sol\":492:519  return journals[msg.sender] */\n      dup1\n      sload\n      dup3\n      mload\n      dup2\n      dup6\n      mul\n      dup2\n      add\n      dup6\n      add\n      swap1\n      swap4\n      mstore\n      dup1\n      dup4\n      mstore\n        /* \"contracts/Daily Gratitude Journal.sol\":466:480  Entry[] memory */\n      0x60\n      swap5\n        /* \"contracts/Daily Gratitude Journal.sol\":492:519  return journals[msg.sender] */\n      swap3\n      swap4\n        /* \"contracts/Daily Gratitude Journal.sol\":499:519  journals[msg.sender] */\n      swap2\n      swap3\n        /* \"contracts/Daily Gratitude Journal.sol\":492:519  return journals[msg.sender] */\n      swap1\n      swap2\n      dup5\n      add\n    tag_26:\n      dup3\n      dup3\n      lt\n      iszero\n      tag_27\n      jumpi\n      dup4\n      dup3\n      swap1\n      0x00\n      mstore\n      keccak256(0x00, 0x20)\n      swap1\n      0x02\n      mul\n      add\n      mload(0x40)\n      dup1\n      0x40\n      add\n      0x40\n      mstore\n      swap1\n      dup2\n      0x00\n      dup3\n      add\n      dup1\n      sload\n      tag_29\n      swap1\n      tag_30\n      jump\t// in\n    tag_29:\n      dup1\n      0x1f\n      add\n      0x20\n      dup1\n      swap2\n      div\n      mul\n      0x20\n      add\n      mload(0x40)\n      swap1\n      dup2\n      add\n      0x40\n      mstore\n      dup1\n      swap3\n      swap2\n      swap1\n      dup2\n      dup2\n      mstore\n      0x20\n      add\n      dup3\n      dup1\n      sload\n      tag_31\n      swap1\n      tag_30\n      jump\t// in\n    tag_31:\n      dup1\n      iszero\n      tag_32\n      jumpi\n      dup1\n      0x1f\n      lt\n      tag_33\n      jumpi\n      0x0100\n      dup1\n      dup4\n      sload\n      div\n      mul\n      dup4\n      mstore\n      swap2\n      0x20\n      add\n      swap2\n      jump(tag_32)\n    tag_33:\n      dup3\n      add\n      swap2\n      swap1\n      0x00\n      mstore\n      keccak256(0x00, 0x20)\n      swap1\n    tag_34:\n      dup2\n      sload\n      dup2\n      mstore\n      swap1\n      0x01\n      add\n      swap1\n      0x20\n      add\n      dup1\n      dup4\n      gt\n      tag_34\n      jumpi\n      dup3\n      swap1\n      sub\n      0x1f\n      and\n      dup3\n      add\n      swap2\n    tag_32:\n      pop\n      pop\n      pop\n      pop\n      pop\n      dup2\n      mstore\n      0x20\n      add\n      0x01\n      dup3\n      add\n      sload\n      dup2\n      mstore\n      pop\n      pop\n      dup2\n      mstore\n      0x20\n      add\n      swap1\n      0x01\n      add\n      swap1\n      jump(tag_26)\n    tag_27:\n      pop\n      pop\n      pop\n      pop\n      swap1\n      pop\n        /* \"contracts/Daily Gratitude Journal.sol\":421:526  function getMyEntries() public view returns (Entry[] memory) {... */\n      swap1\n      jump\t// out\n        /* \"contracts/Daily Gratitude Journal.sol\":168:211  mapping(address => Entry[]) public journals */\n    tag_14:\n      mstore(0x20, 0x00)\n      dup2\n      0x00\n      mstore\n      keccak256(0x00, 0x40)\n      dup2\n      dup2\n      sload\n      dup2\n      lt\n      tag_35\n      jumpi\n      0x00\n      dup1\n      revert\n    tag_35:\n      swap1\n      0x00\n      mstore\n      keccak256(0x00, 0x20)\n      swap1\n      0x02\n      mul\n      add\n      0x00\n      swap2\n      pop\n      swap2\n      pop\n      pop\n      dup1\n      0x00\n      add\n      dup1\n      sload\n      tag_37\n      swap1\n      tag_30\n      jump\t// in\n    tag_37:\n      dup1\n      0x1f\n      add\n      0x20\n      dup1\n      swap2\n      div\n      mul\n      0x20\n      add\n      mload(0x40)\n      swap1\n      dup2\n      add\n      0x40\n      mstore\n      dup1\n      swap3\n      swap2\n      swap1\n      dup2\n      dup2\n      mstore\n      0x20\n      add\n      dup3\n      dup1\n      sload\n      tag_38\n      swap1\n      tag_30\n      jump\t// in\n    tag_38:\n      dup1\n      iszero\n      tag_39\n      jumpi\n      dup1\n      0x1f\n      lt\n      tag_40\n      jumpi\n      0x0100\n      dup1\n      dup4\n      sload\n      div\n      mul\n      dup4\n      mstore\n      swap2\n      0x20\n      add\n      swap2\n      jump(tag_39)\n    tag_40:\n      dup3\n      add\n      swap2\n      swap1\n      0x00\n      mstore\n      keccak256(0x00, 0x20)\n      swap1\n    tag_41:\n      dup2\n      sload\n      dup2\n      mstore\n      swap1\n      0x01\n      add\n      swap1\n      0x20\n      add\n      dup1\n      dup4\n      gt\n      tag_41\n      jumpi\n      dup3\n      swap1\n      sub\n      0x1f\n      and\n      dup3\n      add\n      swap2\n    tag_39:\n      pop\n      pop\n      pop\n      pop\n      pop\n      swap1\n      dup1\n      0x01\n      add\n      sload\n      swap1\n      pop\n      dup3\n      jump\t// out\n        /* \"contracts/Daily Gratitude Journal.sol\":222:411  function addGratitude(string memory _note) public {... */\n    tag_24:\n        /* \"contracts/Daily Gratitude Journal.sol\":312:313  0 */\n      0x00\n        /* \"contracts/Daily Gratitude Journal.sol\":296:301  _note */\n      dup2\n        /* \"contracts/Daily Gratitude Journal.sol\":290:309  bytes(_note).length */\n      mload\n        /* \"contracts/Daily Gratitude Journal.sol\":290:313  bytes(_note).length > 0 */\n      gt\n        /* \"contracts/Daily Gratitude Journal.sol\":282:338  require(bytes(_note).length > 0, \"Note cannot be empty\") */\n      tag_44\n      jumpi\n      mload(0x40)\n      shl(0xe5, 0x461bcd)\n      dup2\n      mstore\n        /* \"#utility.yul\":3827:3829   */\n      0x20\n        /* \"contracts/Daily Gratitude Journal.sol\":282:338  require(bytes(_note).length > 0, \"Note cannot be empty\") */\n      0x04\n      dup3\n      add\n        /* \"#utility.yul\":3809:3830   */\n      mstore\n        /* \"#utility.yul\":3866:3868   */\n      0x14\n        /* \"#utility.yul\":3846:3864   */\n      0x24\n      dup3\n      add\n        /* \"#utility.yul\":3839:3869   */\n      mstore\n      shl(0x60, 0x4e6f74652063616e6e6f7420626520656d707479)\n        /* \"#utility.yul\":3885:3903   */\n      0x44\n      dup3\n      add\n        /* \"#utility.yul\":3878:3928   */\n      mstore\n        /* \"#utility.yul\":3945:3963   */\n      0x64\n      add\n        /* \"contracts/Daily Gratitude Journal.sol\":282:338  require(bytes(_note).length > 0, \"Note cannot be empty\") */\n      mload(0x40)\n      dup1\n      swap2\n      sub\n      swap1\n      revert\n    tag_44:\n        /* \"contracts/Daily Gratitude Journal.sol\":357:367  msg.sender */\n      caller\n        /* \"contracts/Daily Gratitude Journal.sol\":348:356  journals */\n      0x00\n        /* \"contracts/Daily Gratitude Journal.sol\":348:368  journals[msg.sender] */\n      swap1\n      dup2\n      mstore\n      0x20\n      dup2\n      dup2\n      mstore\n      0x40\n      dup1\n      dup4\n      keccak256\n        /* \"contracts/Daily Gratitude Journal.sol\":374:403  Entry(_note, block.timestamp) */\n      dup2\n      mload\n      dup1\n      dup4\n      add\n      swap1\n      swap3\n      mstore\n      dup5\n      dup3\n      mstore\n        /* \"contracts/Daily Gratitude Journal.sol\":387:402  block.timestamp */\n      timestamp\n        /* \"contracts/Daily Gratitude Journal.sol\":374:403  Entry(_note, block.timestamp) */\n      dup3\n      dup5\n      add\n      mstore\n        /* \"contracts/Daily Gratitude Journal.sol\":348:404  journals[msg.sender].push(Entry(_note, block.timestamp)) */\n      dup1\n      sload\n      0x01\n      dup2\n      add\n      dup3\n      sstore\n      swap1\n      dup5\n      mstore\n      swap2\n      swap1\n      swap3\n      keccak256\n      dup3\n      mload\n      0x02\n      swap1\n      swap3\n      mul\n      add\n      swap1\n      dup2\n      swap1\n      tag_48\n      swap1\n      dup3\n      tag_49\n      jump\t// in\n    tag_48:\n      pop\n      0x20\n      dup3\n      add\n      mload\n      dup2\n      0x01\n      add\n      sstore\n      pop\n      pop\n        /* \"contracts/Daily Gratitude Journal.sol\":222:411  function addGratitude(string memory _note) public {... */\n      pop\n      jump\t// out\n        /* \"#utility.yul\":14:303   */\n    tag_50:\n        /* \"#utility.yul\":56:59   */\n      0x00\n        /* \"#utility.yul\":94:99   */\n      dup2\n        /* \"#utility.yul\":88:100   */\n      mload\n        /* \"#utility.yul\":121:127   */\n      dup1\n        /* \"#utility.yul\":116:119   */\n      dup5\n        /* \"#utility.yul\":109:128   */\n      mstore\n        /* \"#utility.yul\":177:183   */\n      dup1\n        /* \"#utility.yul\":170:174   */\n      0x20\n        /* \"#utility.yul\":163:168   */\n      dup5\n        /* \"#utility.yul\":159:175   */\n      add\n        /* \"#utility.yul\":152:156   */\n      0x20\n        /* \"#utility.yul\":147:150   */\n      dup7\n        /* \"#utility.yul\":143:157   */\n      add\n        /* \"#utility.yul\":137:184   */\n      mcopy\n        /* \"#utility.yul\":229:230   */\n      0x00\n        /* \"#utility.yul\":222:226   */\n      0x20\n        /* \"#utility.yul\":213:219   */\n      dup3\n        /* \"#utility.yul\":208:211   */\n      dup7\n        /* \"#utility.yul\":204:220   */\n      add\n        /* \"#utility.yul\":200:227   */\n      add\n        /* \"#utility.yul\":193:231   */\n      mstore\n        /* \"#utility.yul\":292:296   */\n      0x20\n        /* \"#utility.yul\":285:287   */\n      0x1f\n        /* \"#utility.yul\":281:288   */\n      not\n        /* \"#utility.yul\":276:278   */\n      0x1f\n        /* \"#utility.yul\":268:274   */\n      dup4\n        /* \"#utility.yul\":264:279   */\n      add\n        /* \"#utility.yul\":260:289   */\n      and\n        /* \"#utility.yul\":255:258   */\n      dup6\n        /* \"#utility.yul\":251:290   */\n      add\n        /* \"#utility.yul\":247:297   */\n      add\n        /* \"#utility.yul\":240:297   */\n      swap2\n      pop\n      pop\n        /* \"#utility.yul\":14:303   */\n      swap3\n      swap2\n      pop\n      pop\n      jump\t// out\n        /* \"#utility.yul\":308:1316   */\n    tag_10:\n        /* \"#utility.yul\":490:494   */\n      0x00\n        /* \"#utility.yul\":538:540   */\n      0x20\n        /* \"#utility.yul\":527:536   */\n      dup3\n        /* \"#utility.yul\":523:541   */\n      add\n        /* \"#utility.yul\":568:570   */\n      0x20\n        /* \"#utility.yul\":557:566   */\n      dup4\n        /* \"#utility.yul\":550:571   */\n      mstore\n        /* \"#utility.yul\":591:597   */\n      dup1\n        /* \"#utility.yul\":626:632   */\n      dup5\n        /* \"#utility.yul\":620:633   */\n      mload\n        /* \"#utility.yul\":657:663   */\n      dup1\n        /* \"#utility.yul\":649:655   */\n      dup4\n        /* \"#utility.yul\":642:664   */\n      mstore\n        /* \"#utility.yul\":695:697   */\n      0x40\n        /* \"#utility.yul\":684:693   */\n      dup6\n        /* \"#utility.yul\":680:698   */\n      add\n        /* \"#utility.yul\":673:698   */\n      swap2\n      pop\n        /* \"#utility.yul\":757:759   */\n      0x40\n        /* \"#utility.yul\":747:753   */\n      dup2\n        /* \"#utility.yul\":744:745   */\n      0x05\n        /* \"#utility.yul\":740:754   */\n      shl\n        /* \"#utility.yul\":729:738   */\n      dup7\n        /* \"#utility.yul\":725:755   */\n      add\n        /* \"#utility.yul\":721:760   */\n      add\n        /* \"#utility.yul\":707:760   */\n      swap3\n      pop\n        /* \"#utility.yul\":795:797   */\n      0x20\n        /* \"#utility.yul\":787:793   */\n      dup7\n        /* \"#utility.yul\":783:798   */\n      add\n        /* \"#utility.yul\":816:817   */\n      0x00\n        /* \"#utility.yul\":826:1287   */\n    tag_58:\n        /* \"#utility.yul\":840:846   */\n      dup3\n        /* \"#utility.yul\":837:838   */\n      dup2\n        /* \"#utility.yul\":834:847   */\n      lt\n        /* \"#utility.yul\":826:1287   */\n      iszero\n      tag_60\n      jumpi\n        /* \"#utility.yul\":933:935   */\n      0x3f\n        /* \"#utility.yul\":929:936   */\n      not\n        /* \"#utility.yul\":917:926   */\n      dup8\n        /* \"#utility.yul\":909:915   */\n      dup7\n        /* \"#utility.yul\":905:927   */\n      sub\n        /* \"#utility.yul\":901:937   */\n      add\n        /* \"#utility.yul\":896:899   */\n      dup5\n        /* \"#utility.yul\":889:938   */\n      mstore\n        /* \"#utility.yul\":967:973   */\n      dup2\n        /* \"#utility.yul\":961:974   */\n      mload\n        /* \"#utility.yul\":1013:1015   */\n      dup1\n        /* \"#utility.yul\":1007:1016   */\n      mload\n        /* \"#utility.yul\":1044:1046   */\n      0x40\n        /* \"#utility.yul\":1036:1042   */\n      dup8\n        /* \"#utility.yul\":1029:1047   */\n      mstore\n        /* \"#utility.yul\":1074:1122   */\n      tag_61\n        /* \"#utility.yul\":1118:1120   */\n      0x40\n        /* \"#utility.yul\":1110:1116   */\n      dup9\n        /* \"#utility.yul\":1106:1121   */\n      add\n        /* \"#utility.yul\":1092:1104   */\n      dup3\n        /* \"#utility.yul\":1074:1122   */\n      tag_50\n      jump\t// in\n    tag_61:\n        /* \"#utility.yul\":1173:1175   */\n      0x20\n        /* \"#utility.yul\":1165:1176   */\n      swap3\n      dup4\n      add\n        /* \"#utility.yul\":1159:1177   */\n      mload\n        /* \"#utility.yul\":1142:1157   */\n      swap8\n      dup4\n      add\n        /* \"#utility.yul\":1135:1178   */\n      swap8\n      swap1\n      swap8\n      mstore\n      pop\n        /* \"#utility.yul\":1265:1277   */\n      swap4\n      dup5\n      add\n      swap4\n        /* \"#utility.yul\":1230:1245   */\n      swap2\n      swap1\n      swap2\n      add\n      swap1\n        /* \"#utility.yul\":862:863   */\n      0x01\n        /* \"#utility.yul\":855:864   */\n      add\n        /* \"#utility.yul\":826:1287   */\n      jump(tag_58)\n    tag_60:\n      pop\n        /* \"#utility.yul\":1304:1310   */\n      swap3\n      swap7\n        /* \"#utility.yul\":308:1316   */\n      swap6\n      pop\n      pop\n      pop\n      pop\n      pop\n      pop\n      jump\t// out\n        /* \"#utility.yul\":1321:1675   */\n    tag_13:\n        /* \"#utility.yul\":1389:1395   */\n      0x00\n        /* \"#utility.yul\":1397:1403   */\n      0x00\n        /* \"#utility.yul\":1450:1452   */\n      0x40\n        /* \"#utility.yul\":1438:1447   */\n      dup4\n        /* \"#utility.yul\":1429:1436   */\n      dup6\n        /* \"#utility.yul\":1425:1448   */\n      sub\n        /* \"#utility.yul\":1421:1453   */\n      slt\n        /* \"#utility.yul\":1418:1470   */\n      iszero\n      tag_63\n      jumpi\n        /* \"#utility.yul\":1466:1467   */\n      0x00\n        /* \"#utility.yul\":1463:1464   */\n      0x00\n        /* \"#utility.yul\":1456:1468   */\n      revert\n        /* \"#utility.yul\":1418:1470   */\n    tag_63:\n        /* \"#utility.yul\":1492:1515   */\n      dup3\n      calldataload\n      sub(shl(0xa0, 0x01), 0x01)\n        /* \"#utility.yul\":1544:1575   */\n      dup2\n      and\n        /* \"#utility.yul\":1534:1576   */\n      dup2\n      eq\n        /* \"#utility.yul\":1524:1594   */\n      tag_64\n      jumpi\n        /* \"#utility.yul\":1590:1591   */\n      0x00\n        /* \"#utility.yul\":1587:1588   */\n      0x00\n        /* \"#utility.yul\":1580:1592   */\n      revert\n        /* \"#utility.yul\":1524:1594   */\n    tag_64:\n        /* \"#utility.yul\":1613:1618   */\n      swap5\n        /* \"#utility.yul\":1665:1667   */\n      0x20\n        /* \"#utility.yul\":1650:1668   */\n      swap4\n      swap1\n      swap4\n      add\n        /* \"#utility.yul\":1637:1669   */\n      calldataload\n      swap4\n      pop\n      pop\n      pop\n        /* \"#utility.yul\":1321:1675   */\n      jump\t// out\n        /* \"#utility.yul\":1680:1971   */\n    tag_16:\n        /* \"#utility.yul\":1857:1859   */\n      0x40\n        /* \"#utility.yul\":1846:1855   */\n      dup2\n        /* \"#utility.yul\":1839:1860   */\n      mstore\n        /* \"#utility.yul\":1820:1824   */\n      0x00\n        /* \"#utility.yul\":1877:1922   */\n      tag_66\n        /* \"#utility.yul\":1918:1920   */\n      0x40\n        /* \"#utility.yul\":1907:1916   */\n      dup4\n        /* \"#utility.yul\":1903:1921   */\n      add\n        /* \"#utility.yul\":1895:1901   */\n      dup6\n        /* \"#utility.yul\":1877:1922   */\n      tag_50\n      jump\t// in\n    tag_66:\n        /* \"#utility.yul\":1869:1922   */\n      swap1\n      pop\n        /* \"#utility.yul\":1958:1964   */\n      dup3\n        /* \"#utility.yul\":1953:1955   */\n      0x20\n        /* \"#utility.yul\":1942:1951   */\n      dup4\n        /* \"#utility.yul\":1938:1956   */\n      add\n        /* \"#utility.yul\":1931:1965   */\n      mstore\n        /* \"#utility.yul\":1680:1971   */\n      swap4\n      swap3\n      pop\n      pop\n      pop\n      jump\t// out\n        /* \"#utility.yul\":2158:2285   */\n    tag_51:\n        /* \"#utility.yul\":2219:2229   */\n      0x4e487b71\n        /* \"#utility.yul\":2214:2217   */\n      0xe0\n        /* \"#utility.yul\":2210:2230   */\n      shl\n        /* \"#utility.yul\":2207:2208   */\n      0x00\n        /* \"#utility.yul\":2200:2231   */\n      mstore\n        /* \"#utility.yul\":2250:2254   */\n      0x41\n        /* \"#utility.yul\":2247:2248   */\n      0x04\n        /* \"#utility.yul\":2240:2255   */\n      mstore\n        /* \"#utility.yul\":2274:2278   */\n      0x24\n        /* \"#utility.yul\":2271:2272   */\n      0x00\n        /* \"#utility.yul\":2264:2279   */\n      revert\n        /* \"#utility.yul\":2290:3235   */\n    tag_23:\n        /* \"#utility.yul\":2359:2365   */\n      0x00\n        /* \"#utility.yul\":2412:2414   */\n      0x20\n        /* \"#utility.yul\":2400:2409   */\n      dup3\n        /* \"#utility.yul\":2391:2398   */\n      dup5\n        /* \"#utility.yul\":2387:2410   */\n      sub\n        /* \"#utility.yul\":2383:2415   */\n      slt\n        /* \"#utility.yul\":2380:2432   */\n      iszero\n      tag_70\n      jumpi\n        /* \"#utility.yul\":2428:2429   */\n      0x00\n        /* \"#utility.yul\":2425:2426   */\n      0x00\n        /* \"#utility.yul\":2418:2430   */\n      revert\n        /* \"#utility.yul\":2380:2432   */\n    tag_70:\n        /* \"#utility.yul\":2468:2477   */\n      dup2\n        /* \"#utility.yul\":2455:2478   */\n      calldataload\n        /* \"#utility.yul\":2501:2519   */\n      0xffffffffffffffff\n        /* \"#utility.yul\":2493:2499   */\n      dup2\n        /* \"#utility.yul\":2490:2520   */\n      gt\n        /* \"#utility.yul\":2487:2537   */\n      iszero\n      tag_71\n      jumpi\n        /* \"#utility.yul\":2533:2534   */\n      0x00\n        /* \"#utility.yul\":2530:2531   */\n      0x00\n        /* \"#utility.yul\":2523:2535   */\n      revert\n        /* \"#utility.yul\":2487:2537   */\n    tag_71:\n        /* \"#utility.yul\":2556:2578   */\n      dup3\n      add\n        /* \"#utility.yul\":2609:2613   */\n      0x1f\n        /* \"#utility.yul\":2601:2614   */\n      dup2\n      add\n        /* \"#utility.yul\":2597:2624   */\n      dup5\n      sgt\n        /* \"#utility.yul\":2587:2642   */\n      tag_72\n      jumpi\n        /* \"#utility.yul\":2638:2639   */\n      0x00\n        /* \"#utility.yul\":2635:2636   */\n      0x00\n        /* \"#utility.yul\":2628:2640   */\n      revert\n        /* \"#utility.yul\":2587:2642   */\n    tag_72:\n        /* \"#utility.yul\":2678:2680   */\n      dup1\n        /* \"#utility.yul\":2665:2681   */\n      calldataload\n        /* \"#utility.yul\":2704:2722   */\n      0xffffffffffffffff\n        /* \"#utility.yul\":2696:2702   */\n      dup2\n        /* \"#utility.yul\":2693:2723   */\n      gt\n        /* \"#utility.yul\":2690:2746   */\n      iszero\n      tag_74\n      jumpi\n        /* \"#utility.yul\":2726:2744   */\n      tag_74\n      tag_51\n      jump\t// in\n    tag_74:\n        /* \"#utility.yul\":2775:2777   */\n      0x40\n        /* \"#utility.yul\":2769:2778   */\n      mload\n        /* \"#utility.yul\":2867:2869   */\n      0x1f\n        /* \"#utility.yul\":2829:2846   */\n      dup3\n      add\n      not(0x1f)\n        /* \"#utility.yul\":2825:2856   */\n      swap1\n      dup2\n      and\n        /* \"#utility.yul\":2858:2860   */\n      0x3f\n        /* \"#utility.yul\":2821:2861   */\n      add\n        /* \"#utility.yul\":2817:2871   */\n      and\n        /* \"#utility.yul\":2805:2872   */\n      dup2\n      add\n        /* \"#utility.yul\":2902:2920   */\n      0xffffffffffffffff\n        /* \"#utility.yul\":2887:2921   */\n      dup2\n      gt\n        /* \"#utility.yul\":2923:2945   */\n      dup3\n      dup3\n      lt\n        /* \"#utility.yul\":2884:2946   */\n      or\n        /* \"#utility.yul\":2881:2969   */\n      iszero\n      tag_76\n      jumpi\n        /* \"#utility.yul\":2949:2967   */\n      tag_76\n      tag_51\n      jump\t// in\n    tag_76:\n        /* \"#utility.yul\":2985:2987   */\n      0x40\n        /* \"#utility.yul\":2978:3000   */\n      mstore\n        /* \"#utility.yul\":3009:3031   */\n      dup2\n      dup2\n      mstore\n        /* \"#utility.yul\":3050:3065   */\n      dup3\n      dup3\n      add\n        /* \"#utility.yul\":3067:3069   */\n      0x20\n        /* \"#utility.yul\":3046:3070   */\n      add\n        /* \"#utility.yul\":3043:3080   */\n      dup7\n      lt\n        /* \"#utility.yul\":3040:3097   */\n      iszero\n      tag_77\n      jumpi\n        /* \"#utility.yul\":3093:3094   */\n      0x00\n        /* \"#utility.yul\":3090:3091   */\n      0x00\n        /* \"#utility.yul\":3083:3095   */\n      revert\n        /* \"#utility.yul\":3040:3097   */\n    tag_77:\n        /* \"#utility.yul\":3149:3155   */\n      dup2\n        /* \"#utility.yul\":3144:3146   */\n      0x20\n        /* \"#utility.yul\":3140:3142   */\n      dup5\n        /* \"#utility.yul\":3136:3147   */\n      add\n        /* \"#utility.yul\":3131:3133   */\n      0x20\n        /* \"#utility.yul\":3123:3129   */\n      dup4\n        /* \"#utility.yul\":3119:3134   */\n      add\n        /* \"#utility.yul\":3106:3156   */\n      calldatacopy\n        /* \"#utility.yul\":3202:3203   */\n      0x00\n        /* \"#utility.yul\":3176:3195   */\n      swap2\n      dup2\n      add\n        /* \"#utility.yul\":3197:3199   */\n      0x20\n        /* \"#utility.yul\":3172:3200   */\n      add\n        /* \"#utility.yul\":3165:3204   */\n      swap2\n      swap1\n      swap2\n      mstore\n        /* \"#utility.yul\":3180:3186   */\n      swap5\n        /* \"#utility.yul\":2290:3235   */\n      swap4\n      pop\n      pop\n      pop\n      pop\n      jump\t// out\n        /* \"#utility.yul\":3240:3620   */\n    tag_30:\n        /* \"#utility.yul\":3319:3320   */\n      0x01\n        /* \"#utility.yul\":3315:3327   */\n      dup2\n      dup2\n      shr\n      swap1\n        /* \"#utility.yul\":3362:3374   */\n      dup3\n      and\n      dup1\n        /* \"#utility.yul\":3383:3444   */\n      tag_79\n      jumpi\n        /* \"#utility.yul\":3437:3441   */\n      0x7f\n        /* \"#utility.yul\":3429:3435   */\n      dup3\n        /* \"#utility.yul\":3425:3442   */\n      and\n        /* \"#utility.yul\":3415:3442   */\n      swap2\n      pop\n        /* \"#utility.yul\":3383:3444   */\n    tag_79:\n        /* \"#utility.yul\":3490:3492   */\n      0x20\n        /* \"#utility.yul\":3482:3488   */\n      dup3\n        /* \"#utility.yul\":3479:3493   */\n      lt\n        /* \"#utility.yul\":3459:3477   */\n      dup2\n        /* \"#utility.yul\":3456:3494   */\n      sub\n        /* \"#utility.yul\":3453:3614   */\n      tag_80\n      jumpi\n        /* \"#utility.yul\":3536:3546   */\n      0x4e487b71\n        /* \"#utility.yul\":3531:3534   */\n      0xe0\n        /* \"#utility.yul\":3527:3547   */\n      shl\n        /* \"#utility.yul\":3524:3525   */\n      0x00\n        /* \"#utility.yul\":3517:3548   */\n      mstore\n        /* \"#utility.yul\":3571:3575   */\n      0x22\n        /* \"#utility.yul\":3568:3569   */\n      0x04\n        /* \"#utility.yul\":3561:3576   */\n      mstore\n        /* \"#utility.yul\":3599:3603   */\n      0x24\n        /* \"#utility.yul\":3596:3597   */\n      0x00\n        /* \"#utility.yul\":3589:3604   */\n      revert\n        /* \"#utility.yul\":3453:3614   */\n    tag_80:\n      pop\n        /* \"#utility.yul\":3240:3620   */\n      swap2\n      swap1\n      pop\n      jump\t// out\n        /* \"#utility.yul\":4100:4618   */\n    tag_53:\n        /* \"#utility.yul\":4202:4204   */\n      0x1f\n        /* \"#utility.yul\":4197:4200   */\n      dup3\n        /* \"#utility.yul\":4194:4205   */\n      gt\n        /* \"#utility.yul\":4191:4612   */\n      iszero\n      tag_84\n      jumpi\n        /* \"#utility.yul\":4238:4243   */\n      dup1\n        /* \"#utility.yul\":4235:4236   */\n      0x00\n        /* \"#utility.yul\":4228:4244   */\n      mstore\n        /* \"#utility.yul\":4282:4286   */\n      0x20\n        /* \"#utility.yul\":4279:4280   */\n      0x00\n        /* \"#utility.yul\":4269:4287   */\n      keccak256\n        /* \"#utility.yul\":4352:4354   */\n      0x1f\n        /* \"#utility.yul\":4340:4350   */\n      dup5\n        /* \"#utility.yul\":4336:4355   */\n      add\n        /* \"#utility.yul\":4333:4334   */\n      0x05\n        /* \"#utility.yul\":4329:4356   */\n      shr\n        /* \"#utility.yul\":4323:4327   */\n      dup2\n        /* \"#utility.yul\":4319:4357   */\n      add\n        /* \"#utility.yul\":4388:4392   */\n      0x20\n        /* \"#utility.yul\":4376:4386   */\n      dup6\n        /* \"#utility.yul\":4373:4393   */\n      lt\n        /* \"#utility.yul\":4370:4417   */\n      iszero\n      tag_85\n      jumpi\n      pop\n        /* \"#utility.yul\":4411:4415   */\n      dup1\n        /* \"#utility.yul\":4370:4417   */\n    tag_85:\n        /* \"#utility.yul\":4466:4468   */\n      0x1f\n        /* \"#utility.yul\":4461:4464   */\n      dup5\n        /* \"#utility.yul\":4457:4469   */\n      add\n        /* \"#utility.yul\":4454:4455   */\n      0x05\n        /* \"#utility.yul\":4450:4470   */\n      shr\n        /* \"#utility.yul\":4444:4448   */\n      dup3\n        /* \"#utility.yul\":4440:4471   */\n      add\n        /* \"#utility.yul\":4430:4471   */\n      swap2\n      pop\n        /* \"#utility.yul\":4521:4602   */\n    tag_86:\n        /* \"#utility.yul\":4539:4541   */\n      dup2\n        /* \"#utility.yul\":4532:4537   */\n      dup2\n        /* \"#utility.yul\":4529:4542   */\n      lt\n        /* \"#utility.yul\":4521:4602   */\n      iszero\n      tag_88\n      jumpi\n        /* \"#utility.yul\":4598:4599   */\n      0x00\n        /* \"#utility.yul\":4584:4600   */\n      dup2\n      sstore\n        /* \"#utility.yul\":4565:4566   */\n      0x01\n        /* \"#utility.yul\":4554:4567   */\n      add\n        /* \"#utility.yul\":4521:4602   */\n      jump(tag_86)\n    tag_88:\n        /* \"#utility.yul\":4525:4528   */\n      pop\n      pop\n        /* \"#utility.yul\":4191:4612   */\n    tag_84:\n        /* \"#utility.yul\":4100:4618   */\n      pop\n      pop\n      pop\n      jump\t// out\n        /* \"#utility.yul\":4794:6093   */\n    tag_49:\n        /* \"#utility.yul\":4920:4923   */\n      dup2\n        /* \"#utility.yul\":4914:4924   */\n      mload\n        /* \"#utility.yul\":4947:4965   */\n      0xffffffffffffffff\n        /* \"#utility.yul\":4939:4945   */\n      dup2\n        /* \"#utility.yul\":4936:4966   */\n      gt\n        /* \"#utility.yul\":4933:4989   */\n      iszero\n      tag_92\n      jumpi\n        /* \"#utility.yul\":4969:4987   */\n      tag_92\n      tag_51\n      jump\t// in\n    tag_92:\n        /* \"#utility.yul\":4998:5095   */\n      tag_93\n        /* \"#utility.yul\":5088:5094   */\n      dup2\n        /* \"#utility.yul\":5048:5086   */\n      tag_94\n        /* \"#utility.yul\":5080:5084   */\n      dup5\n        /* \"#utility.yul\":5074:5085   */\n      sload\n        /* \"#utility.yul\":5048:5086   */\n      tag_30\n      jump\t// in\n    tag_94:\n        /* \"#utility.yul\":5042:5046   */\n      dup5\n        /* \"#utility.yul\":4998:5095   */\n      tag_53\n      jump\t// in\n    tag_93:\n        /* \"#utility.yul\":5144:5148   */\n      0x20\n        /* \"#utility.yul\":5175:5177   */\n      0x1f\n        /* \"#utility.yul\":5164:5178   */\n      dup3\n      gt\n        /* \"#utility.yul\":5192:5193   */\n      0x01\n        /* \"#utility.yul\":5187:5836   */\n      dup2\n      eq\n      tag_96\n      jumpi\n        /* \"#utility.yul\":5880:5881   */\n      0x00\n        /* \"#utility.yul\":5897:5903   */\n      dup4\n        /* \"#utility.yul\":5894:5983   */\n      iszero\n      tag_97\n      jumpi\n      pop\n        /* \"#utility.yul\":5949:5968   */\n      dup5\n      dup3\n      add\n        /* \"#utility.yul\":5943:5969   */\n      mload\n        /* \"#utility.yul\":5894:5983   */\n    tag_97:\n      not(0x00)\n        /* \"#utility.yul\":4751:4752   */\n      0x03\n        /* \"#utility.yul\":4747:4758   */\n      dup6\n      swap1\n      shl\n        /* \"#utility.yul\":4743:4767   */\n      shr\n        /* \"#utility.yul\":4739:4768   */\n      not\n        /* \"#utility.yul\":4729:4769   */\n      and\n        /* \"#utility.yul\":4775:4776   */\n      0x01\n        /* \"#utility.yul\":4771:4782   */\n      dup5\n      swap1\n      shl\n        /* \"#utility.yul\":4726:4783   */\n      or\n        /* \"#utility.yul\":5996:6077   */\n      dup5\n      sstore\n        /* \"#utility.yul\":5157:6087   */\n      jump(tag_88)\n        /* \"#utility.yul\":5187:5836   */\n    tag_96:\n        /* \"#utility.yul\":4047:4048   */\n      0x00\n        /* \"#utility.yul\":4040:4054   */\n      dup5\n      dup2\n      mstore\n        /* \"#utility.yul\":4084:4088   */\n      0x20\n        /* \"#utility.yul\":4071:4089   */\n      dup2\n      keccak256\n      not(0x1f)\n        /* \"#utility.yul\":5223:5243   */\n      dup6\n      and\n      swap2\n        /* \"#utility.yul\":5341:5563   */\n    tag_100:\n        /* \"#utility.yul\":5355:5362   */\n      dup3\n        /* \"#utility.yul\":5352:5353   */\n      dup2\n        /* \"#utility.yul\":5349:5363   */\n      lt\n        /* \"#utility.yul\":5341:5563   */\n      iszero\n      tag_102\n      jumpi\n        /* \"#utility.yul\":5437:5456   */\n      dup8\n      dup6\n      add\n        /* \"#utility.yul\":5431:5457   */\n      mload\n        /* \"#utility.yul\":5416:5458   */\n      dup3\n      sstore\n        /* \"#utility.yul\":5544:5548   */\n      0x20\n        /* \"#utility.yul\":5529:5549   */\n      swap5\n      dup6\n      add\n      swap5\n        /* \"#utility.yul\":5497:5498   */\n      0x01\n        /* \"#utility.yul\":5485:5499   */\n      swap1\n      swap3\n      add\n      swap2\n        /* \"#utility.yul\":5371:5383   */\n      add\n        /* \"#utility.yul\":5341:5563   */\n      jump(tag_100)\n    tag_102:\n        /* \"#utility.yul\":5345:5348   */\n      pop\n        /* \"#utility.yul\":5591:5597   */\n      dup5\n        /* \"#utility.yul\":5582:5589   */\n      dup3\n        /* \"#utility.yul\":5579:5598   */\n      lt\n        /* \"#utility.yul\":5576:5777   */\n      iszero\n      tag_103\n      jumpi\n        /* \"#utility.yul\":5652:5671   */\n      dup7\n      dup5\n      add\n        /* \"#utility.yul\":5646:5672   */\n      mload\n      not(0x00)\n        /* \"#utility.yul\":5735:5736   */\n      0x03\n        /* \"#utility.yul\":5731:5745   */\n      dup8\n      swap1\n      shl\n        /* \"#utility.yul\":5747:5750   */\n      0xf8\n        /* \"#utility.yul\":5727:5751   */\n      and\n        /* \"#utility.yul\":5723:5760   */\n      shr\n        /* \"#utility.yul\":5719:5761   */\n      not\n        /* \"#utility.yul\":5704:5762   */\n      and\n        /* \"#utility.yul\":5689:5763   */\n      dup2\n      sstore\n        /* \"#utility.yul\":5576:5777   */\n    tag_103:\n      pop\n      pop\n      pop\n      pop\n        /* \"#utility.yul\":5823:5824   */\n      0x01\n        /* \"#utility.yul\":5807:5821   */\n      swap1\n      dup2\n      shl\n        /* \"#utility.yul\":5803:5825   */\n      add\n        /* \"#utility.yul\":5790:5826   */\n      swap1\n      sstore\n      pop\n        /* \"#utility.yul\":4794:6093   */\n      jump\t// out\n\n    auxdata: 0xa264697066735822122041df2a42bfc34c12ac275202cc774c827dff2021809cb502356fa99fae28d50d64736f6c634300081f0033\n}\n",
				"bytecode": {
					"linkReferences": {},
					"object": "6080604052348015600e575f5ffd5b506106518061001c5f395ff3fe608060405234801561000f575f5ffd5b506004361061004a575f3560e01c806313191a6e1461004e578063468437c81461006c5780637a360e651461008d578063fc9ccfe7146100aa575b5f5ffd5b6100566100bf565b6040516100639190610348565b60405180910390f35b61007f61007a3660046103bf565b6101bd565b6040516100639291906103f4565b335f90815260208190526040902054604051908152602001610063565b6100bd6100b8366004610429565b61027c565b005b335f90815260208181526040808320805482518185028101850190935280835260609492939192909184015b828210156101b4578382905f5260205f2090600202016040518060400160405290815f8201805461011b906104dc565b80601f0160208091040260200160405190810160405280929190818152602001828054610147906104dc565b80156101925780601f1061016957610100808354040283529160200191610192565b820191905f5260205f20905b81548152906001019060200180831161017557829003601f168201915b50505050508152602001600182015481525050815260200190600101906100eb565b50505050905090565b5f602052815f5260405f2081815481106101d5575f80fd5b905f5260205f2090600202015f9150915050805f0180546101f5906104dc565b80601f0160208091040260200160405190810160405280929190818152602001828054610221906104dc565b801561026c5780601f106102435761010080835404028352916020019161026c565b820191905f5260205f20905b81548152906001019060200180831161024f57829003601f168201915b5050505050908060010154905082565b5f8151116102c75760405162461bcd60e51b81526020600482015260146024820152734e6f74652063616e6e6f7420626520656d70747960601b604482015260640160405180910390fd5b335f9081526020818152604080832081518083019092528482524282840152805460018101825590845291909220825160029092020190819061030a9082610560565b5060208201518160010155505050565b5f81518084528060208401602086015e5f602082860101526020601f19601f83011685010191505092915050565b5f602082016020835280845180835260408501915060408160051b8601019250602086015f5b828110156103b357603f198786030184528151805160408752610394604088018261031a565b602092830151978301979097525093840193919091019060010161036e565b50929695505050505050565b5f5f604083850312156103d0575f5ffd5b82356001600160a01b03811681146103e6575f5ffd5b946020939093013593505050565b604081525f610406604083018561031a565b90508260208301529392505050565b634e487b7160e01b5f52604160045260245ffd5b5f60208284031215610439575f5ffd5b813567ffffffffffffffff81111561044f575f5ffd5b8201601f8101841361045f575f5ffd5b803567ffffffffffffffff81111561047957610479610415565b604051601f8201601f19908116603f0116810167ffffffffffffffff811182821017156104a8576104a8610415565b6040528181528282016020018610156104bf575f5ffd5b816020840160208301375f91810160200191909152949350505050565b600181811c908216806104f057607f821691505b60208210810361050e57634e487b7160e01b5f52602260045260245ffd5b50919050565b601f82111561055b57805f5260205f20601f840160051c810160208510156105395750805b601f840160051c820191505b81811015610558575f8155600101610545565b50505b505050565b815167ffffffffffffffff81111561057a5761057a610415565b61058e8161058884546104dc565b84610514565b6020601f8211600181146105c0575f83156105a95750848201515b5f19600385901b1c1916600184901b178455610558565b5f84815260208120601f198516915b828110156105ef57878501518255602094850194600190920191016105cf565b508482101561060c57868401515f19600387901b60f8161c191681555b50505050600190811b0190555056fea264697066735822122041df2a42bfc34c12ac275202cc774c827dff2021809cb502356fa99fae28d50d64736f6c634300081f0033",
					"opcodes": "PUSH1 0x80 PUSH1 0x40 MSTORE CALLVALUE DUP1 ISZERO PUSH1 0xE JUMPI PUSH0 PUSH0 REVERT JUMPDEST POP PUSH2 0x651 DUP1 PUSH2 0x1C PUSH0 CODECOPY PUSH0 RETURN INVALID PUSH1 0x80 PUSH1 0x40 MSTORE CALLVALUE DUP1 ISZERO PUSH2 0xF JUMPI PUSH0 PUSH0 REVERT JUMPDEST POP PUSH1 0x4 CALLDATASIZE LT PUSH2 0x4A JUMPI PUSH0 CALLDATALOAD PUSH1 0xE0 SHR DUP1 PUSH4 0x13191A6E EQ PUSH2 0x4E JUMPI DUP1 PUSH4 0x468437C8 EQ PUSH2 0x6C JUMPI DUP1 PUSH4 0x7A360E65 EQ PUSH2 0x8D JUMPI DUP1 PUSH4 0xFC9CCFE7 EQ PUSH2 0xAA JUMPI JUMPDEST PUSH0 PUSH0 REVERT JUMPDEST PUSH2 0x56 PUSH2 0xBF JUMP JUMPDEST PUSH1 0x40 MLOAD PUSH2 0x63 SWAP2 SWAP1 PUSH2 0x348 JUMP JUMPDEST PUSH1 0x40 MLOAD DUP1 SWAP2 SUB SWAP1 RETURN JUMPDEST PUSH2 0x7F PUSH2 0x7A CALLDATASIZE PUSH1 0x4 PUSH2 0x3BF JUMP JUMPDEST PUSH2 0x1BD JUMP JUMPDEST PUSH1 0x40 MLOAD PUSH2 0x63 SWAP3 SWAP2 SWAP1 PUSH2 0x3F4 JUMP JUMPDEST CALLER PUSH0 SWAP1 DUP2 MSTORE PUSH1 0x20 DUP2 SWAP1 MSTORE PUSH1 0x40 SWAP1 KECCAK256 SLOAD PUSH1 0x40 MLOAD SWAP1 DUP2 MSTORE PUSH1 0x20 ADD PUSH2 0x63 JUMP JUMPDEST PUSH2 0xBD PUSH2 0xB8 CALLDATASIZE PUSH1 0x4 PUSH2 0x429 JUMP JUMPDEST PUSH2 0x27C JUMP JUMPDEST STOP JUMPDEST CALLER PUSH0 SWAP1 DUP2 MSTORE PUSH1 0x20 DUP2 DUP2 MSTORE PUSH1 0x40 DUP1 DUP4 KECCAK256 DUP1 SLOAD DUP3 MLOAD DUP2 DUP6 MUL DUP2 ADD DUP6 ADD SWAP1 SWAP4 MSTORE DUP1 DUP4 MSTORE PUSH1 0x60 SWAP5 SWAP3 SWAP4 SWAP2 SWAP3 SWAP1 SWAP2 DUP5 ADD JUMPDEST DUP3 DUP3 LT ISZERO PUSH2 0x1B4 JUMPI DUP4 DUP3 SWAP1 PUSH0 MSTORE PUSH1 0x20 PUSH0 KECCAK256 SWAP1 PUSH1 0x2 MUL ADD PUSH1 0x40 MLOAD DUP1 PUSH1 0x40 ADD PUSH1 0x40 MSTORE SWAP1 DUP2 PUSH0 DUP3 ADD DUP1 SLOAD PUSH2 0x11B SWAP1 PUSH2 0x4DC JUMP JUMPDEST DUP1 PUSH1 0x1F ADD PUSH1 0x20 DUP1 SWAP2 DIV MUL PUSH1 0x20 ADD PUSH1 0x40 MLOAD SWAP1 DUP2 ADD PUSH1 0x40 MSTORE DUP1 SWAP3 SWAP2 SWAP1 DUP2 DUP2 MSTORE PUSH1 0x20 ADD DUP3 DUP1 SLOAD PUSH2 0x147 SWAP1 PUSH2 0x4DC JUMP JUMPDEST DUP1 ISZERO PUSH2 0x192 JUMPI DUP1 PUSH1 0x1F LT PUSH2 0x169 JUMPI PUSH2 0x100 DUP1 DUP4 SLOAD DIV MUL DUP4 MSTORE SWAP2 PUSH1 0x20 ADD SWAP2 PUSH2 0x192 JUMP JUMPDEST DUP3 ADD SWAP2 SWAP1 PUSH0 MSTORE PUSH1 0x20 PUSH0 KECCAK256 SWAP1 JUMPDEST DUP2 SLOAD DUP2 MSTORE SWAP1 PUSH1 0x1 ADD SWAP1 PUSH1 0x20 ADD DUP1 DUP4 GT PUSH2 0x175 JUMPI DUP3 SWAP1 SUB PUSH1 0x1F AND DUP3 ADD SWAP2 JUMPDEST POP POP POP POP POP DUP2 MSTORE PUSH1 0x20 ADD PUSH1 0x1 DUP3 ADD SLOAD DUP2 MSTORE POP POP DUP2 MSTORE PUSH1 0x20 ADD SWAP1 PUSH1 0x1 ADD SWAP1 PUSH2 0xEB JUMP JUMPDEST POP POP POP POP SWAP1 POP SWAP1 JUMP JUMPDEST PUSH0 PUSH1 0x20 MSTORE DUP2 PUSH0 MSTORE PUSH1 0x40 PUSH0 KECCAK256 DUP2 DUP2 SLOAD DUP2 LT PUSH2 0x1D5 JUMPI PUSH0 DUP1 REVERT JUMPDEST SWAP1 PUSH0 MSTORE PUSH1 0x20 PUSH0 KECCAK256 SWAP1 PUSH1 0x2 MUL ADD PUSH0 SWAP2 POP SWAP2 POP POP DUP1 PUSH0 ADD DUP1 SLOAD PUSH2 0x1F5 SWAP1 PUSH2 0x4DC JUMP JUMPDEST DUP1 PUSH1 0x1F ADD PUSH1 0x20 DUP1 SWAP2 DIV MUL PUSH1 0x20 ADD PUSH1 0x40 MLOAD SWAP1 DUP2 ADD PUSH1 0x40 MSTORE DUP1 SWAP3 SWAP2 SWAP1 DUP2 DUP2 MSTORE PUSH1 0x20 ADD DUP3 DUP1 SLOAD PUSH2 0x221 SWAP1 PUSH2 0x4DC JUMP JUMPDEST DUP1 ISZERO PUSH2 0x26C JUMPI DUP1 PUSH1 0x1F LT PUSH2 0x243 JUMPI PUSH2 0x100 DUP1 DUP4 SLOAD DIV MUL DUP4 MSTORE SWAP2 PUSH1 0x20 ADD SWAP2 PUSH2 0x26C JUMP JUMPDEST DUP3 ADD SWAP2 SWAP1 PUSH0 MSTORE PUSH1 0x20 PUSH0 KECCAK256 SWAP1 JUMPDEST DUP2 SLOAD DUP2 MSTORE SWAP1 PUSH1 0x1 ADD SWAP1 PUSH1 0x20 ADD DUP1 DUP4 GT PUSH2 0x24F JUMPI DUP3 SWAP1 SUB PUSH1 0x1F AND DUP3 ADD SWAP2 JUMPDEST POP POP POP POP POP SWAP1 DUP1 PUSH1 0x1 ADD SLOAD SWAP1 POP DUP3 JUMP JUMPDEST PUSH0 DUP2 MLOAD GT PUSH2 0x2C7 JUMPI PUSH1 0x40 MLOAD PUSH3 0x461BCD PUSH1 0xE5 SHL DUP2 MSTORE PUSH1 0x20 PUSH1 0x4 DUP3 ADD MSTORE PUSH1 0x14 PUSH1 0x24 DUP3 ADD MSTORE PUSH20 0x4E6F74652063616E6E6F7420626520656D707479 PUSH1 0x60 SHL PUSH1 0x44 DUP3 ADD MSTORE PUSH1 0x64 ADD PUSH1 0x40 MLOAD DUP1 SWAP2 SUB SWAP1 REVERT JUMPDEST CALLER PUSH0 SWAP1 DUP2 MSTORE PUSH1 0x20 DUP2 DUP2 MSTORE PUSH1 0x40 DUP1 DUP4 KECCAK256 DUP2 MLOAD DUP1 DUP4 ADD SWAP1 SWAP3 MSTORE DUP5 DUP3 MSTORE TIMESTAMP DUP3 DUP5 ADD MSTORE DUP1 SLOAD PUSH1 0x1 DUP2 ADD DUP3 SSTORE SWAP1 DUP5 MSTORE SWAP2 SWAP1 SWAP3 KECCAK256 DUP3 MLOAD PUSH1 0x2 SWAP1 SWAP3 MUL ADD SWAP1 DUP2 SWAP1 PUSH2 0x30A SWAP1 DUP3 PUSH2 0x560 JUMP JUMPDEST POP PUSH1 0x20 DUP3 ADD MLOAD DUP2 PUSH1 0x1 ADD SSTORE POP POP POP JUMP JUMPDEST PUSH0 DUP2 MLOAD DUP1 DUP5 MSTORE DUP1 PUSH1 0x20 DUP5 ADD PUSH1 0x20 DUP7 ADD MCOPY PUSH0 PUSH1 0x20 DUP3 DUP7 ADD ADD MSTORE PUSH1 0x20 PUSH1 0x1F NOT PUSH1 0x1F DUP4 ADD AND DUP6 ADD ADD SWAP2 POP POP SWAP3 SWAP2 POP POP JUMP JUMPDEST PUSH0 PUSH1 0x20 DUP3 ADD PUSH1 0x20 DUP4 MSTORE DUP1 DUP5 MLOAD DUP1 DUP4 MSTORE PUSH1 0x40 DUP6 ADD SWAP2 POP PUSH1 0x40 DUP2 PUSH1 0x5 SHL DUP7 ADD ADD SWAP3 POP PUSH1 0x20 DUP7 ADD PUSH0 JUMPDEST DUP3 DUP2 LT ISZERO PUSH2 0x3B3 JUMPI PUSH1 0x3F NOT DUP8 DUP7 SUB ADD DUP5 MSTORE DUP2 MLOAD DUP1 MLOAD PUSH1 0x40 DUP8 MSTORE PUSH2 0x394 PUSH1 0x40 DUP9 ADD DUP3 PUSH2 0x31A JUMP JUMPDEST PUSH1 0x20 SWAP3 DUP4 ADD MLOAD SWAP8 DUP4 ADD SWAP8 SWAP1 SWAP8 MSTORE POP SWAP4 DUP5 ADD SWAP4 SWAP2 SWAP1 SWAP2 ADD SWAP1 PUSH1 0x1 ADD PUSH2 0x36E JUMP JUMPDEST POP SWAP3 SWAP7 SWAP6 POP POP POP POP POP POP JUMP JUMPDEST PUSH0 PUSH0 PUSH1 0x40 DUP4 DUP6 SUB SLT ISZERO PUSH2 0x3D0 JUMPI PUSH0 PUSH0 REVERT JUMPDEST DUP3 CALLDATALOAD PUSH1 0x1 PUSH1 0x1 PUSH1 0xA0 SHL SUB DUP2 AND DUP2 EQ PUSH2 0x3E6 JUMPI PUSH0 PUSH0 REVERT JUMPDEST SWAP5 PUSH1 0x20 SWAP4 SWAP1 SWAP4 ADD CALLDATALOAD SWAP4 POP POP POP JUMP JUMPDEST PUSH1 0x40 DUP2 MSTORE PUSH0 PUSH2 0x406 PUSH1 0x40 DUP4 ADD DUP6 PUSH2 0x31A JUMP JUMPDEST SWAP1 POP DUP3 PUSH1 0x20 DUP4 ADD MSTORE SWAP4 SWAP3 POP POP POP JUMP JUMPDEST PUSH4 0x4E487B71 PUSH1 0xE0 SHL PUSH0 MSTORE PUSH1 0x41 PUSH1 0x4 MSTORE PUSH1 0x24 PUSH0 REVERT JUMPDEST PUSH0 PUSH1 0x20 DUP3 DUP5 SUB SLT ISZERO PUSH2 0x439 JUMPI PUSH0 PUSH0 REVERT JUMPDEST DUP2 CALLDATALOAD PUSH8 0xFFFFFFFFFFFFFFFF DUP2 GT ISZERO PUSH2 0x44F JUMPI PUSH0 PUSH0 REVERT JUMPDEST DUP3 ADD PUSH1 0x1F DUP2 ADD DUP5 SGT PUSH2 0x45F JUMPI PUSH0 PUSH0 REVERT JUMPDEST DUP1 CALLDATALOAD PUSH8 0xFFFFFFFFFFFFFFFF DUP2 GT ISZERO PUSH2 0x479 JUMPI PUSH2 0x479 PUSH2 0x415 JUMP JUMPDEST PUSH1 0x40 MLOAD PUSH1 0x1F DUP3 ADD PUSH1 0x1F NOT SWAP1 DUP2 AND PUSH1 0x3F ADD AND DUP2 ADD PUSH8 0xFFFFFFFFFFFFFFFF DUP2 GT DUP3 DUP3 LT OR ISZERO PUSH2 0x4A8 JUMPI PUSH2 0x4A8 PUSH2 0x415 JUMP JUMPDEST PUSH1 0x40 MSTORE DUP2 DUP2 MSTORE DUP3 DUP3 ADD PUSH1 0x20 ADD DUP7 LT ISZERO PUSH2 0x4BF JUMPI PUSH0 PUSH0 REVERT JUMPDEST DUP2 PUSH1 0x20 DUP5 ADD PUSH1 0x20 DUP4 ADD CALLDATACOPY PUSH0 SWAP2 DUP2 ADD PUSH1 0x20 ADD SWAP2 SWAP1 SWAP2 MSTORE SWAP5 SWAP4 POP POP POP POP JUMP JUMPDEST PUSH1 0x1 DUP2 DUP2 SHR SWAP1 DUP3 AND DUP1 PUSH2 0x4F0 JUMPI PUSH1 0x7F DUP3 AND SWAP2 POP JUMPDEST PUSH1 0x20 DUP3 LT DUP2 SUB PUSH2 0x50E JUMPI PUSH4 0x4E487B71 PUSH1 0xE0 SHL PUSH0 MSTORE PUSH1 0x22 PUSH1 0x4 MSTORE PUSH1 0x24 PUSH0 REVERT JUMPDEST POP SWAP2 SWAP1 POP JUMP JUMPDEST PUSH1 0x1F DUP3 GT ISZERO PUSH2 0x55B JUMPI DUP1 PUSH0 MSTORE PUSH1 0x20 PUSH0 KECCAK256 PUSH1 0x1F DUP5 ADD PUSH1 0x5 SHR DUP2 ADD PUSH1 0x20 DUP6 LT ISZERO PUSH2 0x539 JUMPI POP DUP1 JUMPDEST PUSH1 0x1F DUP5 ADD PUSH1 0x5 SHR DUP3 ADD SWAP2 POP JUMPDEST DUP2 DUP2 LT ISZERO PUSH2 0x558 JUMPI PUSH0 DUP2 SSTORE PUSH1 0x1 ADD PUSH2 0x545 JUMP JUMPDEST POP POP JUMPDEST POP POP POP JUMP JUMPDEST DUP2 MLOAD PUSH8 0xFFFFFFFFFFFFFFFF DUP2 GT ISZERO PUSH2 0x57A JUMPI PUSH2 0x57A PUSH2 0x415 JUMP JUMPDEST PUSH2 0x58E DUP2 PUSH2 0x588 DUP5 SLOAD PUSH2 0x4DC JUMP JUMPDEST DUP5 PUSH2 0x514 JUMP JUMPDEST PUSH1 0x20 PUSH1 0x1F DUP3 GT PUSH1 0x1 DUP2 EQ PUSH2 0x5C0 JUMPI PUSH0 DUP4 ISZERO PUSH2 0x5A9 JUMPI POP DUP5 DUP3 ADD MLOAD JUMPDEST PUSH0 NOT PUSH1 0x3 DUP6 SWAP1 SHL SHR NOT AND PUSH1 0x1 DUP5 SWAP1 SHL OR DUP5 SSTORE PUSH2 0x558 JUMP JUMPDEST PUSH0 DUP5 DUP2 MSTORE PUSH1 0x20 DUP2 KECCAK256 PUSH1 0x1F NOT DUP6 AND SWAP2 JUMPDEST DUP3 DUP2 LT ISZERO PUSH2 0x5EF JUMPI DUP8 DUP6 ADD MLOAD DUP3 SSTORE PUSH1 0x20 SWAP5 DUP6 ADD SWAP5 PUSH1 0x1 SWAP1 SWAP3 ADD SWAP2 ADD PUSH2 0x5CF JUMP JUMPDEST POP DUP5 DUP3 LT ISZERO PUSH2 0x60C JUMPI DUP7 DUP5 ADD MLOAD PUSH0 NOT PUSH1 0x3 DUP8 SWAP1 SHL PUSH1 0xF8 AND SHR NOT AND DUP2 SSTORE JUMPDEST POP POP POP POP PUSH1 0x1 SWAP1 DUP2 SHL ADD SWAP1 SSTORE POP JUMP INVALID LOG2 PUSH5 0x6970667358 0x22 SLT KECCAK256 COINBASE 0xDF 0x2A TIMESTAMP 0xBF 0xC3 0x4C SLT 0xAC 0x27 MSTORE MUL 0xCC PUSH24 0x4C827DFF2021809CB502356FA99FAE28D50D64736F6C6343 STOP ADDMOD 0x1F STOP CALLER "
				},
				"gasEstimates": {
					"creation": {
						"codeDepositCost": "323400",
						"executionCost": "360",
						"totalCost": "323760"
					},
					"external": {
						"addGratitude(string)": "infinite",
						"getEntryCount()": "2371",
						"getMyEntries()": "infinite",
						"journals(address,uint256)": "infinite"
					}
				},
				"methodIdentifiers": {
					"addGratitude(string)": "fc9ccfe7",
					"getEntryCount()": "7a360e65",
					"getMyEntries()": "13191a6e",
					"journals(address,uint256)": "468437c8"
				}
			},
			"storageLayout": {
				"storage": [
					{
						"astId": 12,
						"contract": "contracts/Daily Gratitude Journal.sol:GratitudeJournal",
						"label": "journals",
						"offset": 0,
						"slot": "0",
						"type": "t_mapping(t_address,t_array(t_struct(Entry)6_storage)dyn_storage)"
					}
				],
				"types": {
					"t_address": {
						"encoding": "inplace",
						"label": "address",
						"numberOfBytes": "20"
					},
					"t_array(t_struct(Entry)6_storage)dyn_storage": {
						"base": "t_struct(Entry)6_storage",
						"encoding": "dynamic_array",
						"label": "struct GratitudeJournal.Entry[]",
						"numberOfBytes": "32"
					},
					"t_mapping(t_address,t_array(t_struct(Entry)6_storage)dyn_storage)": {
						"encoding": "mapping",
						"key": "t_address",
						"label": "mapping(address => struct GratitudeJournal.Entry[])",
						"numberOfBytes": "32",
						"value": "t_array(t_struct(Entry)6_storage)dyn_storage"
					},
					"t_string_storage": {
						"encoding": "bytes",
						"label": "string",
						"numberOfBytes": "32"
					},
					"t_struct(Entry)6_storage": {
						"encoding": "inplace",
						"label": "struct GratitudeJournal.Entry",
						"members": [
							{
								"astId": 3,
								"contract": "contracts/Daily Gratitude Journal.sol:GratitudeJournal",
								"label": "note",
								"offset": 0,
								"slot": "0",
								"type": "t_string_storage"
							},
							{
								"astId": 5,
								"contract": "contracts/Daily Gratitude Journal.sol:GratitudeJournal",
								"label": "timestamp",
								"offset": 0,
								"slot": "1",
								"type": "t_uint256"
							}
						],
						"numberOfBytes": "64"
					},
					"t_uint256": {
						"encoding": "inplace",
						"label": "uint256",
						"numberOfBytes": "32"
					}
				}
			},
			"userdoc": {
				"kind": "user",
				"methods": {},
				"version": 1
			}
		}
	}
}